{
  "_format": "hh-sol-artifact-1",
  "contractName": "DiamondSupplyChain",
  "sourceName": "contracts/DiamondSupplyChain.sol",
  "abi": [
    {
      "inputs": [],
      "stateMutability": "nonpayable",
      "type": "constructor"
    },
    {
      "anonymous": false,
      "inputs": [
        {
          "indexed": true,
          "internalType": "uint256",
          "name": "diamondId",
          "type": "uint256"
        },
        {
          "indexed": true,
          "internalType": "address",
          "name": "miner",
          "type": "address"
        },
        {
          "indexed": false,
          "internalType": "string",
          "name": "location",
          "type": "string"
        },
        {
          "indexed": false,
          "internalType": "uint256",
          "name": "caratWeight",
          "type": "uint256"
        }
      ],
      "name": "DiamondMined",
      "type": "event"
    },
    {
      "anonymous": false,
      "inputs": [
        {
          "indexed": true,
          "internalType": "uint256",
          "name": "diamondId",
          "type": "uint256"
        },
        {
          "indexed": true,
          "internalType": "address",
          "name": "buyer",
          "type": "address"
        },
        {
          "indexed": false,
          "internalType": "uint256",
          "name": "salePrice",
          "type": "uint256"
        }
      ],
      "name": "DiamondSold",
      "type": "event"
    },
    {
      "anonymous": false,
      "inputs": [
        {
          "indexed": true,
          "internalType": "uint256",
          "name": "diamondId",
          "type": "uint256"
        },
        {
          "indexed": false,
          "internalType": "enum DiamondSupplyChain.DiamondStatus",
          "name": "fromStatus",
          "type": "uint8"
        },
        {
          "indexed": false,
          "internalType": "enum DiamondSupplyChain.DiamondStatus",
          "name": "toStatus",
          "type": "uint8"
        },
        {
          "indexed": true,
          "internalType": "address",
          "name": "actor",
          "type": "address"
        }
      ],
      "name": "StatusUpdated",
      "type": "event"
    },
    {
      "inputs": [
        {
          "internalType": "uint256",
          "name": "_diamondId",
          "type": "uint256"
        },
        {
          "internalType": "string",
          "name": "_color",
          "type": "string"
        },
        {
          "internalType": "string",
          "name": "_clarity",
          "type": "string"
        },
        {
          "internalType": "string",
          "name": "_reportNotes",
          "type": "string"
        }
      ],
      "name": "certifyDiamond",
      "outputs": [],
      "stateMutability": "nonpayable",
      "type": "function"
    },
    {
      "inputs": [],
      "name": "contractOwner",
      "outputs": [
        {
          "internalType": "address",
          "name": "",
          "type": "address"
        }
      ],
      "stateMutability": "view",
      "type": "function"
    },
    {
      "inputs": [
        {
          "internalType": "uint256",
          "name": "_diamondId",
          "type": "uint256"
        },
        {
          "internalType": "uint256",
          "name": "_finishedCarat",
          "type": "uint256"
        },
        {
          "internalType": "string",
          "name": "_cutQuality",
          "type": "string"
        },
        {
          "internalType": "string",
          "name": "_location",
          "type": "string"
        }
      ],
      "name": "cutAndPolish",
      "outputs": [],
      "stateMutability": "nonpayable",
      "type": "function"
    },
    {
      "inputs": [
        {
          "internalType": "uint256",
          "name": "",
          "type": "uint256"
        }
      ],
      "name": "diamonds",
      "outputs": [
        {
          "internalType": "uint256",
          "name": "id",
          "type": "uint256"
        },
        {
          "internalType": "address",
          "name": "currentOwner",
          "type": "address"
        },
        {
          "internalType": "enum DiamondSupplyChain.DiamondStatus",
          "name": "status",
          "type": "uint8"
        },
        {
          "internalType": "uint256",
          "name": "caratWeight",
          "type": "uint256"
        },
        {
          "internalType": "string",
          "name": "color",
          "type": "string"
        },
        {
          "internalType": "string",
          "name": "clarity",
          "type": "string"
        },
        {
          "internalType": "string",
          "name": "cut",
          "type": "string"
        }
      ],
      "stateMutability": "view",
      "type": "function"
    },
    {
      "inputs": [
        {
          "internalType": "string",
          "name": "_role",
          "type": "string"
        },
        {
          "internalType": "address",
          "name": "_addressToGrant",
          "type": "address"
        }
      ],
      "name": "grantRole",
      "outputs": [],
      "stateMutability": "nonpayable",
      "type": "function"
    },
    {
      "inputs": [
        {
          "internalType": "address",
          "name": "",
          "type": "address"
        }
      ],
      "name": "isCertifier",
      "outputs": [
        {
          "internalType": "bool",
          "name": "",
          "type": "bool"
        }
      ],
      "stateMutability": "view",
      "type": "function"
    },
    {
      "inputs": [
        {
          "internalType": "address",
          "name": "",
          "type": "address"
        }
      ],
      "name": "isCutter",
      "outputs": [
        {
          "internalType": "bool",
          "name": "",
          "type": "bool"
        }
      ],
      "stateMutability": "view",
      "type": "function"
    },
    {
      "inputs": [
        {
          "internalType": "address",
          "name": "",
          "type": "address"
        }
      ],
      "name": "isMiner",
      "outputs": [
        {
          "internalType": "bool",
          "name": "",
          "type": "bool"
        }
      ],
      "stateMutability": "view",
      "type": "function"
    },
    {
      "inputs": [
        {
          "internalType": "address",
          "name": "",
          "type": "address"
        }
      ],
      "name": "isRetailer",
      "outputs": [
        {
          "internalType": "bool",
          "name": "",
          "type": "bool"
        }
      ],
      "stateMutability": "view",
      "type": "function"
    },
    {
      "inputs": [
        {
          "internalType": "uint256",
          "name": "_carat",
          "type": "uint256"
        },
        {
          "internalType": "string",
          "name": "_location",
          "type": "string"
        }
      ],
      "name": "mineDiamond",
      "outputs": [
        {
          "internalType": "uint256",
          "name": "",
          "type": "uint256"
        }
      ],
      "stateMutability": "nonpayable",
      "type": "function"
    },
    {
      "inputs": [
        {
          "internalType": "uint256",
          "name": "_diamondId",
          "type": "uint256"
        },
        {
          "internalType": "string",
          "name": "_location",
          "type": "string"
        }
      ],
      "name": "moveToRetail",
      "outputs": [],
      "stateMutability": "nonpayable",
      "type": "function"
    },
    {
      "inputs": [
        {
          "internalType": "uint256",
          "name": "_diamondId",
          "type": "uint256"
        },
        {
          "internalType": "address",
          "name": "_buyer",
          "type": "address"
        },
        {
          "internalType": "uint256",
          "name": "_salePrice",
          "type": "uint256"
        }
      ],
      "name": "recordSale",
      "outputs": [],
      "stateMutability": "nonpayable",
      "type": "function"
    }
  ],
  "bytecode": "0x60808060405234602b5760018055600680546001600160a01b03191633179055611e9390816100318239f35b600080fdfe6080604052600436101561001257600080fd5b60003560e01c80621cdb23146114405780631c2353e114611401578063291d8dca146112a15780633951e09b146111e55780633f5c5e7914610d0f5780635da09b8814610cd0578063648fd7c014610c91578063701b70ac14610c52578063a5610379146105b5578063c0f3341814610392578063c19ae2ed146100cd5763ce606ee01461009f57600080fd5b346100c85760003660031901126100c8576006546040516001600160a01b039091168152602090f35b600080fd5b346100c85760403660031901126100c8576004356001600160401b0381116100c8576100fd903690600401611819565b610105611876565b6006549091906001600160a01b0316330361033557604051906020820181519261014b6020828186019661013a81878a6119a9565b81010301601f1981018352826117dd565b51902060405160208101906426a4a722a960d91b8252600581526101706025826117dd565b5190200361019f5750506001600160a01b03166000908152600260205260409020805460ff191660011790555b005b60405160208101906101ba602082855161013a81878a6119a9565b51902060405160208101906521aaaa2a22a960d11b8252600681526101e06026826117dd565b5190200361020e5750506001600160a01b03166000908152600360205260409020805460ff19166001179055005b6040516020810190610229602082855161013a81878a6119a9565b51902060405160208101906821a2a92a24a324a2a960b91b8252600981526102526029826117dd565b519020036102805750506001600160a01b03166000908152600460205260409020805460ff19166001179055005b61029c6020604051809361013a838301968792519283916119a9565b5190206040516020810190672922aa20a4a622a960c11b8252600881526102c46028826117dd565b519020036102f0576001600160a01b03166000908152600560205260409020805460ff19166001179055005b60405162461bcd60e51b815260206004820152601760248201527f496e76616c696420726f6c65207370656369666965642e0000000000000000006044820152606490fd5b60405162461bcd60e51b815260206004820152602f60248201527f4f6e6c792074686520636f6e7472616374206f776e65722063616e2063616c6c60448201526e103a3434b990333ab731ba34b7b71760891b6064820152608490fd5b346100c85760603660031901126100c8576004356103ae611876565b90604435903360005260056020526103cd60ff60406000205416611ca7565b806000526000602052604060002091600183019060ff825460a01c1691600583101561059f57600383036105455761019d9560069461048d94610413604051809261199c565b6004602082015281600080516020611e3e83398151915260403393a36040518481526001600160a01b03831691907f6747c1ec2bd86dfa60a8c4de1dc040482d5f8618be034d32c3312515ce165a1f90602090a381546001600160a81b0319166001600160a01b039190911617600160a21b179055611d75565b916104f46007603b60405180967f536f6c6420746f20636f6e73756d65722061742070726963653a20000000000060208301526104d381518092602086860191016119a9565b810166103ab734ba399760c91b8382015203016018198101865201846117dd565b60405192610501846117c2565b60048452336020850152604080519061051a81836117dd565b600a82526946696e616c2053616c6560b01b6020830152850152426060850152608084015201611c5e565b60405162461bcd60e51b815260206004820152602c60248201527f4469616d6f6e64206d75737420626520496e2052657461696c2073746174757360448201526b103a379031329039b7b6321760a11b6064820152608490fd5b634e487b7160e01b600052602160045260246000fd5b346100c8576105c33661188c565b33600052600260205260ff6040600020541615610c025760015490604051926105eb846117c2565b60008452336020850152816040850152426060850152604091825161061084826117dd565b601f81527f5261772073746f6e65206d696e656420616e6420726567697374657265642e00602082015260808601526020946001845161065088826117dd565b60008152600091610bfd575b855161010081018181106001600160401b038211176109b857875287815287878a8084013381528285019087825260608601918b8352888551946106a081876117dd565b818652608089019586528651966106b782896117dd565b82885260a08a0197885251976106cd828a6117dd565b82895260c08a0198895260e08a019a8b528252528c89209651875590516001870180546001600160a01b0319166001600160a01b039290921691909117815590516005811015610be957815460ff60a01b191660a09190911b60ff60a01b161790555160028501555180516003850191906001600160401b038111610bd5578d61075784546118be565b90601f8211610ba7575b50508d80601f8311600114610b4157508190610793938a92610b36575b50508160011b916000199060031b1c19161790565b90555b60048301905180516001600160401b038111610b22576107b683546118be565b8d601f8211610af4575b50508c8d601f8311600114610a8e575081906107f19389926109cc5750508160011b916000199060031b1c19161790565b90555b51805160058301916001600160401b038211610a7a5761081483546118be565b8c601f8211610a41575b50508b908c601f84116001146109d75750918061085592600696959489926109cc5750508160011b916000199060031b1c19161790565b90555b01905190815191600160401b83116109b8578990825484845580851061092d575b50918893918a97969593019083528a83208b84925b848410610901575050508683525050808952207f9640a4144cdec75f5c3c8fd02f2b362a765ac90b1473298bc30916f8cd24a85092916108d091600601611c5e565b6108e2855191868352868301906119cc565b93878201528033940390a36108f8600154611d50565b60015551908152f35b600193959798995060049294965061091a815186611a08565b019201920189969594928b8a959361088e565b9091506001600160fe1b03811681036109a4576001600160fe1b03841684036109a457908a918386528286209060021b8101908560021b015b8181106109735750610879565b60049192935086815561098860018201611d01565b86600282015561099a60038201611d01565b01908b9291610966565b634e487b7160e01b85526011600452602485fd5b634e487b7160e01b84526041600452602484fd5b015190508e8061077e565b9190601f1984168589528389209389905b828210610a2957505091600193918560069897969410610a10575b505050811b019055610858565b015160001960f88460031b161c191690558d8080610a03565b806001869782949787015181550196019401906109e8565b848852808820610a6992601f860160051c8201928610610a70575b601f0160051c01906119f1565b8c8c61081e565b9091508190610a5c565b634e487b7160e01b86526041600452602486fd5b9192601f198416858a52838a20938a905b828210610adc575050908460019594939210610ac3575b505050811b0190556107f4565b015160001960f88460031b161c191690558d8080610ab6565b80600186978294978701518155019601940190610a9f565b848952808920610b1b92601f850160051c8201928510610a7057601f0160051c01906119f1565b8d8d6107c0565b634e487b7160e01b87526041600452602487fd5b015190508f8061077e565b9192601f198416858b52838b20938b905b828210610b8f575050908460019594939210610b76575b505050811b019055610796565b015160001960f88460031b161c191690558e8080610b69565b80600186978294978701518155019601940190610b52565b848a52808a20610bce92601f850160051c8201928510610a7057601f0160051c01906119f1565b8e8e610761565b634e487b7160e01b88526041600452602488fd5b634e487b7160e01b89526021600452602489fd5b61065c565b60405162461bcd60e51b815260206004820152602260248201527f43616c6c6572206973206e6f7420616e20617574686f72697a6564204d696e65604482015261391760f11b6064820152608490fd5b346100c85760203660031901126100c8576001600160a01b03610c73611860565b166000526002602052602060ff604060002054166040519015158152f35b346100c85760203660031901126100c8576001600160a01b03610cb2611860565b166000526003602052602060ff604060002054166040519015158152f35b346100c85760203660031901126100c8576001600160a01b03610cf1611860565b166000526005602052602060ff604060002054166040519015158152f35b346100c85760803660031901126100c8576004356024356001600160401b0381116100c857610d42903690600401611819565b906044356001600160401b0381116100c857610d62903690600401611819565b916064356001600160401b0381116100c857610d82903690600401611819565b33600052600460205260ff604060002054161561119157826000526000602052604060002092600184019060ff825460a01c1690600582101561059f576001820361113257610dd4604051809361199c565b60026020830152600080516020611e3e83398151915260403393a36003840183516001600160401b03811161107b57610e0d82546118be565b601f8111611100575b506020601f821160011461109c579080610e4692600091611091575b508160011b916000199060031b1c19161790565b90555b6004840185516001600160401b03811161107b57610e6782546118be565b601f8111611049575b506020601f8211600114610fd35761019d979694610f7294600994610eb18560069a96600a96600091610fc857508160011b916000199060031b1c19161790565b90555b80546001600160a81b0319163317600160a11b1790556040517f4365727469666965642077697468206772616465733a20436f6c6f7220000000602080830191909152845191998a95603d939192610f1291839189870191016119a9565b8501690161021b630b934ba3c960b51b83820152610f3a8251809360206047850191016119a9565b010168017102737ba32b99d160bd1b83820152610f618251809360206013850191016119a9565b01010301601f1981018552846117dd565b60405192610f7f846117c2565b600284523360208501526040805190610f9881836117dd565b600f82526e23a4a097a4a3a497a0a3a9902630b160891b6020830152850152426060850152608084015201611c5e565b90508c01518e610e32565b601f1982169083600052806000209160005b818110611031575094600994600185600a9561019d9d9c9a9560069c98610f729b10611018575b5050811b019055610eb4565b8d015160001960f88460031b161c191690558d8061100c565b9192602060018192868e015181550194019201610fe5565b61107590836000526020600020601f840160051c81019160208510610a7057601f0160051c01906119f1565b87610e70565b634e487b7160e01b600052604160045260246000fd5b905086015189610e32565b601f1982169083600052806000209160005b8181106110e8575090836001949392106110cf575b5050811b019055610e49565b87015160001960f88460031b161c1916905588806110c3565b9192602060018192868c0151815501940192016110ae565b61112c90836000526020600020601f840160051c81019160208510610a7057601f0160051c01906119f1565b87610e16565b60405162461bcd60e51b815260206004820152603160248201527f4469616d6f6e64206d7573742062652043757420616e6420506f6c6973686564604482015270103a379031329031b2b93a34b334b2b21760791b6064820152608490fd5b60405162461bcd60e51b815260206004820152602660248201527f43616c6c6572206973206e6f7420616e20617574686f72697a6564204365727460448201526534b334b2b91760d11b6064820152608490fd5b346100c85760203660031901126100c85760043560005260006020526040600020805461129d60018301549261128f600282015491611281611229600383016118f8565b611241600561123a600486016118f8565b94016118f8565b9461126b604051998a998a5260018060a01b03811660208b015260ff60408b019160a01c1661199c565b606088015260e0608088015260e08701906119cc565b9085820360a08701526119cc565b9083820360c08501526119cc565b0390f35b346100c8576112af3661188c565b3360005260056020526112c960ff60406000205416611ca7565b816000526000602052604060002091600183019260ff845460a01c1693600585101561059f57600285036113a15761019d9460069361130b604051809361199c565b60036020830152600080516020611e3e83398151915260403393a380546001600160a81b0319163317600360a01b17905560405192611349846117c2565b60038452336020850152604084015242606084015260405161136c6040826117dd565b602081527f5472616e7366657272656420746f2072657461696c20696e76656e746f72792e6020820152608084015201611c5e565b60405162461bcd60e51b815260206004820152603260248201527f4469616d6f6e64206d75737420626520436572746966696564206265666f72656044820152711036b7bb34b733903a37903932ba30b4b61760711b6064820152608490fd5b346100c85760203660031901126100c8576001600160a01b03611422611860565b166000526004602052602060ff604060002054166040519015158152f35b346100c85760803660031901126100c8576024356004356044356001600160401b0381116100c857611476903690600401611819565b906064356001600160401b0381116100c857611496903690600401611819565b9133600052600360205260ff604060002054161561177157816000526000602052604060002093600185019260ff845460a01c1690600582101561059f5781611719578215158061170b575b156116c6576114f4604051809361199c565b60016020830152600080516020611e3e83398151915260403393a36002850155805160058501916001600160401b03821161107b5761153383546118be565b601f8111611694575b50602090601f831160011461162557826006959361019d9895936115769360009261161a5750508160011b916000199060031b1c19161790565b90555b80546001600160a81b0319163317600160a01b1790556040519261159c846117c2565b6001845233602085015260408401524260608401526040516115bf6060826117dd565b603981527f53746f6e65206375742c20706f6c69736865642c20616e64206e65772077656960208201527f6768742f637574207175616c697479207265636f726465642e000000000000006040820152608084015201611c5e565b01519050898061077e565b90601f1983169184600052816000209260005b81811061167c57509260019285926006989661019d9b989610611663575b505050811b019055611579565b015160001960f88460031b161c19169055888080611656565b92936020600181928786015181550195019301611638565b6116c090846000526020600020601f850160051c81019160208610610a7057601f0160051c01906119f1565b8661153c565b60405162461bcd60e51b815260206004820152601e60248201527f46696e697368656420776569676874206d7573742062652076616c69642e00006044820152606490fd5b5060028701548311156114e2565b60405162461bcd60e51b815260206004820152602a60248201527f4469616d6f6e64206d75737420626520696e204d696e656420737461747573206044820152693a379031329031baba1760b11b6064820152608490fd5b60405162461bcd60e51b815260206004820152602360248201527f43616c6c6572206973206e6f7420616e20617574686f72697a6564204375747460448201526232b91760e91b6064820152608490fd5b60a081019081106001600160401b0382111761107b57604052565b90601f801991011681019081106001600160401b0382111761107b57604052565b6001600160401b03811161107b57601f01601f191660200190565b81601f820112156100c857803590611830826117fe565b9261183e60405194856117dd565b828452602083830101116100c857816000926020809301838601378301015290565b600435906001600160a01b03821682036100c857565b602435906001600160a01b03821682036100c857565b9060406003198301126100c85760043591602435906001600160401b0382116100c8576118bb91600401611819565b90565b90600182811c921680156118ee575b60208310146118d857565b634e487b7160e01b600052602260045260246000fd5b91607f16916118cd565b906040519182600082549261190c846118be565b808452936001811690811561197a5750600114611933575b50611931925003836117dd565b565b90506000929192526020600020906000915b81831061195e5750509060206119319282010138611924565b6020919350806001915483858901015201910190918492611945565b90506020925061193194915060ff191682840152151560051b82010138611924565b90600582101561059f5752565b60005b8381106119bc5750506000910152565b81810151838201526020016119ac565b906020916119e5815180928185528580860191016119a9565b601f01601f1916010190565b8181106119fc575050565b600081556001016119f1565b9190805192600584101561059f5780546020830151610100600160a81b0360089190911b1660ff959095166001600160a81b03199091161793909317835560408101518051600094916001830191906001600160401b038211610b2257611a6f83546118be565b601f8111611c2e575b50602090601f8311600114611bc657826080959360039593611aaf938b92611b195750508160011b916000199060031b1c19161790565b90555b6060840151600282015501910151928351906001600160401b038211611bb257611adc83546118be565b601f8111611b82575b50602090601f8311600114611b245790611b1593949583611b195750508160011b916000199060031b1c19161790565b9055565b01519050388061077e565b90601f198316848352818320925b818110611b6a57509583600195969710611b51575b505050811b019055565b015160001960f88460031b161c19169055388080611b47565b9192602060018192868b015181550194019201611b32565b611bac9084835260208320601f850160051c81019160208610610a7057601f0160051c01906119f1565b38611ae5565b634e487b7160e01b81526041600452602490fd5b8388528188209190601f198416895b818110611c165750926001928592608098966003989610611bfe575b505050811b019055611ab2565b015160001983881b60f8161c19169055388080611bf1565b92936020600181928786015181550195019301611bd5565b611c589084895260208920601f850160051c81019160208610610a7057601f0160051c01906119f1565b38611a78565b908154600160401b81101561107b5760018101808455811015611c91576119319260005260206000209060021b01611a08565b634e487b7160e01b600052603260045260246000fd5b15611cae57565b60405162461bcd60e51b815260206004820152602560248201527f43616c6c6572206973206e6f7420616e20617574686f72697a6564205265746160448201526434b632b91760d91b6064820152608490fd5b611d0b81546118be565b9081611d15575050565b81601f60009311600114611d27575055565b81835260208320611d4391601f0160051c8101906001016119f1565b8082528160208120915555565b6000198114611d5f5760010190565b634e487b7160e01b600052601160045260246000fd5b8015611e1d57600081805b611e095750611d8e816117fe565b90611d9c60405192836117dd565b808252601f19611dab826117fe565b013660208401375b80928015611e02576000198201918211611d5f578193600a82066030019283603011611d5f5784511115611c9157600a9260f81b6001600160f81b03191660001a908401601f01530491611db3565b5050905090565b90611e15600a91611d50565b910480611d80565b50604051611e2c6040826117dd565b60018152600360fc1b60208201529056fe876b27c390964649365f39e05b526395171d9e39b50c742a7ab350cd24437f05a2646970667358221220a88f119180cc4d8e34a6d23ac78760c908bc3c0b92ad44d8a41b61c2d3b08c0b64736f6c634300081c0033",
  "linkReferences": {},
  "deployedLinkReferences": {}
}