{
  "contracts/DiamondSupplyChain.sol": {
    "DiamondSupplyChain": {
      "abi": [
        {
          "inputs": [],
          "stateMutability": "nonpayable",
          "type": "constructor"
        },
        {
          "anonymous": false,
          "inputs": [
            {
              "indexed": true,
              "internalType": "uint256",
              "name": "diamondId",
              "type": "uint256"
            },
            {
              "indexed": true,
              "internalType": "address",
              "name": "miner",
              "type": "address"
            },
            {
              "indexed": false,
              "internalType": "string",
              "name": "location",
              "type": "string"
            },
            {
              "indexed": false,
              "internalType": "uint256",
              "name": "caratWeight",
              "type": "uint256"
            }
          ],
          "name": "DiamondMined",
          "type": "event"
        },
        {
          "anonymous": false,
          "inputs": [
            {
              "indexed": true,
              "internalType": "uint256",
              "name": "diamondId",
              "type": "uint256"
            },
            {
              "indexed": true,
              "internalType": "address",
              "name": "buyer",
              "type": "address"
            },
            {
              "indexed": false,
              "internalType": "uint256",
              "name": "salePrice",
              "type": "uint256"
            }
          ],
          "name": "DiamondSold",
          "type": "event"
        },
        {
          "anonymous": false,
          "inputs": [
            {
              "indexed": true,
              "internalType": "uint256",
              "name": "diamondId",
              "type": "uint256"
            },
            {
              "indexed": false,
              "internalType": "enum DiamondSupplyChain.DiamondStatus",
              "name": "fromStatus",
              "type": "uint8"
            },
            {
              "indexed": false,
              "internalType": "enum DiamondSupplyChain.DiamondStatus",
              "name": "toStatus",
              "type": "uint8"
            },
            {
              "indexed": true,
              "internalType": "address",
              "name": "actor",
              "type": "address"
            }
          ],
          "name": "StatusUpdated",
          "type": "event"
        },
        {
          "inputs": [
            {
              "internalType": "uint256",
              "name": "_diamondId",
              "type": "uint256"
            },
            {
              "internalType": "string",
              "name": "_color",
              "type": "string"
            },
            {
              "internalType": "string",
              "name": "_clarity",
              "type": "string"
            },
            {
              "internalType": "string",
              "name": "_reportNotes",
              "type": "string"
            }
          ],
          "name": "certifyDiamond",
          "outputs": [],
          "stateMutability": "nonpayable",
          "type": "function"
        },
        {
          "inputs": [],
          "name": "contractOwner",
          "outputs": [
            {
              "internalType": "address",
              "name": "",
              "type": "address"
            }
          ],
          "stateMutability": "view",
          "type": "function"
        },
        {
          "inputs": [
            {
              "internalType": "uint256",
              "name": "_diamondId",
              "type": "uint256"
            },
            {
              "internalType": "uint256",
              "name": "_finishedCarat",
              "type": "uint256"
            },
            {
              "internalType": "string",
              "name": "_cutQuality",
              "type": "string"
            },
            {
              "internalType": "string",
              "name": "_location",
              "type": "string"
            }
          ],
          "name": "cutAndPolish",
          "outputs": [],
          "stateMutability": "nonpayable",
          "type": "function"
        },
        {
          "inputs": [
            {
              "internalType": "uint256",
              "name": "",
              "type": "uint256"
            }
          ],
          "name": "diamonds",
          "outputs": [
            {
              "internalType": "uint256",
              "name": "id",
              "type": "uint256"
            },
            {
              "internalType": "address",
              "name": "currentOwner",
              "type": "address"
            },
            {
              "internalType": "enum DiamondSupplyChain.DiamondStatus",
              "name": "status",
              "type": "uint8"
            },
            {
              "internalType": "uint256",
              "name": "caratWeight",
              "type": "uint256"
            },
            {
              "internalType": "string",
              "name": "color",
              "type": "string"
            },
            {
              "internalType": "string",
              "name": "clarity",
              "type": "string"
            },
            {
              "internalType": "string",
              "name": "cut",
              "type": "string"
            }
          ],
          "stateMutability": "view",
          "type": "function"
        },
        {
          "inputs": [
            {
              "internalType": "string",
              "name": "_role",
              "type": "string"
            },
            {
              "internalType": "address",
              "name": "_addressToGrant",
              "type": "address"
            }
          ],
          "name": "grantRole",
          "outputs": [],
          "stateMutability": "nonpayable",
          "type": "function"
        },
        {
          "inputs": [
            {
              "internalType": "address",
              "name": "",
              "type": "address"
            }
          ],
          "name": "isCertifier",
          "outputs": [
            {
              "internalType": "bool",
              "name": "",
              "type": "bool"
            }
          ],
          "stateMutability": "view",
          "type": "function"
        },
        {
          "inputs": [
            {
              "internalType": "address",
              "name": "",
              "type": "address"
            }
          ],
          "name": "isCutter",
          "outputs": [
            {
              "internalType": "bool",
              "name": "",
              "type": "bool"
            }
          ],
          "stateMutability": "view",
          "type": "function"
        },
        {
          "inputs": [
            {
              "internalType": "address",
              "name": "",
              "type": "address"
            }
          ],
          "name": "isMiner",
          "outputs": [
            {
              "internalType": "bool",
              "name": "",
              "type": "bool"
            }
          ],
          "stateMutability": "view",
          "type": "function"
        },
        {
          "inputs": [
            {
              "internalType": "address",
              "name": "",
              "type": "address"
            }
          ],
          "name": "isRetailer",
          "outputs": [
            {
              "internalType": "bool",
              "name": "",
              "type": "bool"
            }
          ],
          "stateMutability": "view",
          "type": "function"
        },
        {
          "inputs": [
            {
              "internalType": "uint256",
              "name": "_carat",
              "type": "uint256"
            },
            {
              "internalType": "string",
              "name": "_location",
              "type": "string"
            }
          ],
          "name": "mineDiamond",
          "outputs": [
            {
              "internalType": "uint256",
              "name": "",
              "type": "uint256"
            }
          ],
          "stateMutability": "nonpayable",
          "type": "function"
        },
        {
          "inputs": [
            {
              "internalType": "uint256",
              "name": "_diamondId",
              "type": "uint256"
            },
            {
              "internalType": "string",
              "name": "_location",
              "type": "string"
            }
          ],
          "name": "moveToRetail",
          "outputs": [],
          "stateMutability": "nonpayable",
          "type": "function"
        },
        {
          "inputs": [
            {
              "internalType": "uint256",
              "name": "_diamondId",
              "type": "uint256"
            },
            {
              "internalType": "address",
              "name": "_buyer",
              "type": "address"
            },
            {
              "internalType": "uint256",
              "name": "_salePrice",
              "type": "uint256"
            }
          ],
          "name": "recordSale",
          "outputs": [],
          "stateMutability": "nonpayable",
          "type": "function"
        }
      ],
      "evm": {
        "bytecode": {
          "linkReferences": {},
          "object": "60808060405234602b5760018055600680546001600160a01b03191633179055611e9390816100318239f35b600080fdfe6080604052600436101561001257600080fd5b60003560e01c80621cdb23146114405780631c2353e114611401578063291d8dca146112a15780633951e09b146111e55780633f5c5e7914610d0f5780635da09b8814610cd0578063648fd7c014610c91578063701b70ac14610c52578063a5610379146105b5578063c0f3341814610392578063c19ae2ed146100cd5763ce606ee01461009f57600080fd5b346100c85760003660031901126100c8576006546040516001600160a01b039091168152602090f35b600080fd5b346100c85760403660031901126100c8576004356001600160401b0381116100c8576100fd903690600401611819565b610105611876565b6006549091906001600160a01b0316330361033557604051906020820181519261014b6020828186019661013a81878a6119a9565b81010301601f1981018352826117dd565b51902060405160208101906426a4a722a960d91b8252600581526101706025826117dd565b5190200361019f5750506001600160a01b03166000908152600260205260409020805460ff191660011790555b005b60405160208101906101ba602082855161013a81878a6119a9565b51902060405160208101906521aaaa2a22a960d11b8252600681526101e06026826117dd565b5190200361020e5750506001600160a01b03166000908152600360205260409020805460ff19166001179055005b6040516020810190610229602082855161013a81878a6119a9565b51902060405160208101906821a2a92a24a324a2a960b91b8252600981526102526029826117dd565b519020036102805750506001600160a01b03166000908152600460205260409020805460ff19166001179055005b61029c6020604051809361013a838301968792519283916119a9565b5190206040516020810190672922aa20a4a622a960c11b8252600881526102c46028826117dd565b519020036102f0576001600160a01b03166000908152600560205260409020805460ff19166001179055005b60405162461bcd60e51b815260206004820152601760248201527f496e76616c696420726f6c65207370656369666965642e0000000000000000006044820152606490fd5b60405162461bcd60e51b815260206004820152602f60248201527f4f6e6c792074686520636f6e7472616374206f776e65722063616e2063616c6c60448201526e103a3434b990333ab731ba34b7b71760891b6064820152608490fd5b346100c85760603660031901126100c8576004356103ae611876565b90604435903360005260056020526103cd60ff60406000205416611ca7565b806000526000602052604060002091600183019060ff825460a01c1691600583101561059f57600383036105455761019d9560069461048d94610413604051809261199c565b6004602082015281600080516020611e3e83398151915260403393a36040518481526001600160a01b03831691907f6747c1ec2bd86dfa60a8c4de1dc040482d5f8618be034d32c3312515ce165a1f90602090a381546001600160a81b0319166001600160a01b039190911617600160a21b179055611d75565b916104f46007603b60405180967f536f6c6420746f20636f6e73756d65722061742070726963653a20000000000060208301526104d381518092602086860191016119a9565b810166103ab734ba399760c91b8382015203016018198101865201846117dd565b60405192610501846117c2565b60048452336020850152604080519061051a81836117dd565b600a82526946696e616c2053616c6560b01b6020830152850152426060850152608084015201611c5e565b60405162461bcd60e51b815260206004820152602c60248201527f4469616d6f6e64206d75737420626520496e2052657461696c2073746174757360448201526b103a379031329039b7b6321760a11b6064820152608490fd5b634e487b7160e01b600052602160045260246000fd5b346100c8576105c33661188c565b33600052600260205260ff6040600020541615610c025760015490604051926105eb846117c2565b60008452336020850152816040850152426060850152604091825161061084826117dd565b601f81527f5261772073746f6e65206d696e656420616e6420726567697374657265642e00602082015260808601526020946001845161065088826117dd565b60008152600091610bfd575b855161010081018181106001600160401b038211176109b857875287815287878a8084013381528285019087825260608601918b8352888551946106a081876117dd565b818652608089019586528651966106b782896117dd565b82885260a08a0197885251976106cd828a6117dd565b82895260c08a0198895260e08a019a8b528252528c89209651875590516001870180546001600160a01b0319166001600160a01b039290921691909117815590516005811015610be957815460ff60a01b191660a09190911b60ff60a01b161790555160028501555180516003850191906001600160401b038111610bd5578d61075784546118be565b90601f8211610ba7575b50508d80601f8311600114610b4157508190610793938a92610b36575b50508160011b916000199060031b1c19161790565b90555b60048301905180516001600160401b038111610b22576107b683546118be565b8d601f8211610af4575b50508c8d601f8311600114610a8e575081906107f19389926109cc5750508160011b916000199060031b1c19161790565b90555b51805160058301916001600160401b038211610a7a5761081483546118be565b8c601f8211610a41575b50508b908c601f84116001146109d75750918061085592600696959489926109cc5750508160011b916000199060031b1c19161790565b90555b01905190815191600160401b83116109b8578990825484845580851061092d575b50918893918a97969593019083528a83208b84925b848410610901575050508683525050808952207f9640a4144cdec75f5c3c8fd02f2b362a765ac90b1473298bc30916f8cd24a85092916108d091600601611c5e565b6108e2855191868352868301906119cc565b93878201528033940390a36108f8600154611d50565b60015551908152f35b600193959798995060049294965061091a815186611a08565b019201920189969594928b8a959361088e565b9091506001600160fe1b03811681036109a4576001600160fe1b03841684036109a457908a918386528286209060021b8101908560021b015b8181106109735750610879565b60049192935086815561098860018201611d01565b86600282015561099a60038201611d01565b01908b9291610966565b634e487b7160e01b85526011600452602485fd5b634e487b7160e01b84526041600452602484fd5b015190508e8061077e565b9190601f1984168589528389209389905b828210610a2957505091600193918560069897969410610a10575b505050811b019055610858565b015160001960f88460031b161c191690558d8080610a03565b806001869782949787015181550196019401906109e8565b848852808820610a6992601f860160051c8201928610610a70575b601f0160051c01906119f1565b8c8c61081e565b9091508190610a5c565b634e487b7160e01b86526041600452602486fd5b9192601f198416858a52838a20938a905b828210610adc575050908460019594939210610ac3575b505050811b0190556107f4565b015160001960f88460031b161c191690558d8080610ab6565b80600186978294978701518155019601940190610a9f565b848952808920610b1b92601f850160051c8201928510610a7057601f0160051c01906119f1565b8d8d6107c0565b634e487b7160e01b87526041600452602487fd5b015190508f8061077e565b9192601f198416858b52838b20938b905b828210610b8f575050908460019594939210610b76575b505050811b019055610796565b015160001960f88460031b161c191690558e8080610b69565b80600186978294978701518155019601940190610b52565b848a52808a20610bce92601f850160051c8201928510610a7057601f0160051c01906119f1565b8e8e610761565b634e487b7160e01b88526041600452602488fd5b634e487b7160e01b89526021600452602489fd5b61065c565b60405162461bcd60e51b815260206004820152602260248201527f43616c6c6572206973206e6f7420616e20617574686f72697a6564204d696e65604482015261391760f11b6064820152608490fd5b346100c85760203660031901126100c8576001600160a01b03610c73611860565b166000526002602052602060ff604060002054166040519015158152f35b346100c85760203660031901126100c8576001600160a01b03610cb2611860565b166000526003602052602060ff604060002054166040519015158152f35b346100c85760203660031901126100c8576001600160a01b03610cf1611860565b166000526005602052602060ff604060002054166040519015158152f35b346100c85760803660031901126100c8576004356024356001600160401b0381116100c857610d42903690600401611819565b906044356001600160401b0381116100c857610d62903690600401611819565b916064356001600160401b0381116100c857610d82903690600401611819565b33600052600460205260ff604060002054161561119157826000526000602052604060002092600184019060ff825460a01c1690600582101561059f576001820361113257610dd4604051809361199c565b60026020830152600080516020611e3e83398151915260403393a36003840183516001600160401b03811161107b57610e0d82546118be565b601f8111611100575b506020601f821160011461109c579080610e4692600091611091575b508160011b916000199060031b1c19161790565b90555b6004840185516001600160401b03811161107b57610e6782546118be565b601f8111611049575b506020601f8211600114610fd35761019d979694610f7294600994610eb18560069a96600a96600091610fc857508160011b916000199060031b1c19161790565b90555b80546001600160a81b0319163317600160a11b1790556040517f4365727469666965642077697468206772616465733a20436f6c6f7220000000602080830191909152845191998a95603d939192610f1291839189870191016119a9565b8501690161021b630b934ba3c960b51b83820152610f3a8251809360206047850191016119a9565b010168017102737ba32b99d160bd1b83820152610f618251809360206013850191016119a9565b01010301601f1981018552846117dd565b60405192610f7f846117c2565b600284523360208501526040805190610f9881836117dd565b600f82526e23a4a097a4a3a497a0a3a9902630b160891b6020830152850152426060850152608084015201611c5e565b90508c01518e610e32565b601f1982169083600052806000209160005b818110611031575094600994600185600a9561019d9d9c9a9560069c98610f729b10611018575b5050811b019055610eb4565b8d015160001960f88460031b161c191690558d8061100c565b9192602060018192868e015181550194019201610fe5565b61107590836000526020600020601f840160051c81019160208510610a7057601f0160051c01906119f1565b87610e70565b634e487b7160e01b600052604160045260246000fd5b905086015189610e32565b601f1982169083600052806000209160005b8181106110e8575090836001949392106110cf575b5050811b019055610e49565b87015160001960f88460031b161c1916905588806110c3565b9192602060018192868c0151815501940192016110ae565b61112c90836000526020600020601f840160051c81019160208510610a7057601f0160051c01906119f1565b87610e16565b60405162461bcd60e51b815260206004820152603160248201527f4469616d6f6e64206d7573742062652043757420616e6420506f6c6973686564604482015270103a379031329031b2b93a34b334b2b21760791b6064820152608490fd5b60405162461bcd60e51b815260206004820152602660248201527f43616c6c6572206973206e6f7420616e20617574686f72697a6564204365727460448201526534b334b2b91760d11b6064820152608490fd5b346100c85760203660031901126100c85760043560005260006020526040600020805461129d60018301549261128f600282015491611281611229600383016118f8565b611241600561123a600486016118f8565b94016118f8565b9461126b604051998a998a5260018060a01b03811660208b015260ff60408b019160a01c1661199c565b606088015260e0608088015260e08701906119cc565b9085820360a08701526119cc565b9083820360c08501526119cc565b0390f35b346100c8576112af3661188c565b3360005260056020526112c960ff60406000205416611ca7565b816000526000602052604060002091600183019260ff845460a01c1693600585101561059f57600285036113a15761019d9460069361130b604051809361199c565b60036020830152600080516020611e3e83398151915260403393a380546001600160a81b0319163317600360a01b17905560405192611349846117c2565b60038452336020850152604084015242606084015260405161136c6040826117dd565b602081527f5472616e7366657272656420746f2072657461696c20696e76656e746f72792e6020820152608084015201611c5e565b60405162461bcd60e51b815260206004820152603260248201527f4469616d6f6e64206d75737420626520436572746966696564206265666f72656044820152711036b7bb34b733903a37903932ba30b4b61760711b6064820152608490fd5b346100c85760203660031901126100c8576001600160a01b03611422611860565b166000526004602052602060ff604060002054166040519015158152f35b346100c85760803660031901126100c8576024356004356044356001600160401b0381116100c857611476903690600401611819565b906064356001600160401b0381116100c857611496903690600401611819565b9133600052600360205260ff604060002054161561177157816000526000602052604060002093600185019260ff845460a01c1690600582101561059f5781611719578215158061170b575b156116c6576114f4604051809361199c565b60016020830152600080516020611e3e83398151915260403393a36002850155805160058501916001600160401b03821161107b5761153383546118be565b601f8111611694575b50602090601f831160011461162557826006959361019d9895936115769360009261161a5750508160011b916000199060031b1c19161790565b90555b80546001600160a81b0319163317600160a01b1790556040519261159c846117c2565b6001845233602085015260408401524260608401526040516115bf6060826117dd565b603981527f53746f6e65206375742c20706f6c69736865642c20616e64206e65772077656960208201527f6768742f637574207175616c697479207265636f726465642e000000000000006040820152608084015201611c5e565b01519050898061077e565b90601f1983169184600052816000209260005b81811061167c57509260019285926006989661019d9b989610611663575b505050811b019055611579565b015160001960f88460031b161c19169055888080611656565b92936020600181928786015181550195019301611638565b6116c090846000526020600020601f850160051c81019160208610610a7057601f0160051c01906119f1565b8661153c565b60405162461bcd60e51b815260206004820152601e60248201527f46696e697368656420776569676874206d7573742062652076616c69642e00006044820152606490fd5b5060028701548311156114e2565b60405162461bcd60e51b815260206004820152602a60248201527f4469616d6f6e64206d75737420626520696e204d696e656420737461747573206044820152693a379031329031baba1760b11b6064820152608490fd5b60405162461bcd60e51b815260206004820152602360248201527f43616c6c6572206973206e6f7420616e20617574686f72697a6564204375747460448201526232b91760e91b6064820152608490fd5b60a081019081106001600160401b0382111761107b57604052565b90601f801991011681019081106001600160401b0382111761107b57604052565b6001600160401b03811161107b57601f01601f191660200190565b81601f820112156100c857803590611830826117fe565b9261183e60405194856117dd565b828452602083830101116100c857816000926020809301838601378301015290565b600435906001600160a01b03821682036100c857565b602435906001600160a01b03821682036100c857565b9060406003198301126100c85760043591602435906001600160401b0382116100c8576118bb91600401611819565b90565b90600182811c921680156118ee575b60208310146118d857565b634e487b7160e01b600052602260045260246000fd5b91607f16916118cd565b906040519182600082549261190c846118be565b808452936001811690811561197a5750600114611933575b50611931925003836117dd565b565b90506000929192526020600020906000915b81831061195e5750509060206119319282010138611924565b6020919350806001915483858901015201910190918492611945565b90506020925061193194915060ff191682840152151560051b82010138611924565b90600582101561059f5752565b60005b8381106119bc5750506000910152565b81810151838201526020016119ac565b906020916119e5815180928185528580860191016119a9565b601f01601f1916010190565b8181106119fc575050565b600081556001016119f1565b9190805192600584101561059f5780546020830151610100600160a81b0360089190911b1660ff959095166001600160a81b03199091161793909317835560408101518051600094916001830191906001600160401b038211610b2257611a6f83546118be565b601f8111611c2e575b50602090601f8311600114611bc657826080959360039593611aaf938b92611b195750508160011b916000199060031b1c19161790565b90555b6060840151600282015501910151928351906001600160401b038211611bb257611adc83546118be565b601f8111611b82575b50602090601f8311600114611b245790611b1593949583611b195750508160011b916000199060031b1c19161790565b9055565b01519050388061077e565b90601f198316848352818320925b818110611b6a57509583600195969710611b51575b505050811b019055565b015160001960f88460031b161c19169055388080611b47565b9192602060018192868b015181550194019201611b32565b611bac9084835260208320601f850160051c81019160208610610a7057601f0160051c01906119f1565b38611ae5565b634e487b7160e01b81526041600452602490fd5b8388528188209190601f198416895b818110611c165750926001928592608098966003989610611bfe575b505050811b019055611ab2565b015160001983881b60f8161c19169055388080611bf1565b92936020600181928786015181550195019301611bd5565b611c589084895260208920601f850160051c81019160208610610a7057601f0160051c01906119f1565b38611a78565b908154600160401b81101561107b5760018101808455811015611c91576119319260005260206000209060021b01611a08565b634e487b7160e01b600052603260045260246000fd5b15611cae57565b60405162461bcd60e51b815260206004820152602560248201527f43616c6c6572206973206e6f7420616e20617574686f72697a6564205265746160448201526434b632b91760d91b6064820152608490fd5b611d0b81546118be565b9081611d15575050565b81601f60009311600114611d27575055565b81835260208320611d4391601f0160051c8101906001016119f1565b8082528160208120915555565b6000198114611d5f5760010190565b634e487b7160e01b600052601160045260246000fd5b8015611e1d57600081805b611e095750611d8e816117fe565b90611d9c60405192836117dd565b808252601f19611dab826117fe565b013660208401375b80928015611e02576000198201918211611d5f578193600a82066030019283603011611d5f5784511115611c9157600a9260f81b6001600160f81b03191660001a908401601f01530491611db3565b5050905090565b90611e15600a91611d50565b910480611d80565b50604051611e2c6040826117dd565b60018152600360fc1b60208201529056fe876b27c390964649365f39e05b526395171d9e39b50c742a7ab350cd24437f05a2646970667358221220a88f119180cc4d8e34a6d23ac78760c908bc3c0b92ad44d8a41b61c2d3b08c0b64736f6c634300081c0033",
          "opcodes": "PUSH1 0x80 DUP1 PUSH1 0x40 MSTORE CALLVALUE PUSH1 0x2B JUMPI PUSH1 0x1 DUP1 SSTORE PUSH1 0x6 DUP1 SLOAD PUSH1 0x1 PUSH1 0x1 PUSH1 0xA0 SHL SUB NOT AND CALLER OR SWAP1 SSTORE PUSH2 0x1E93 SWAP1 DUP2 PUSH2 0x31 DUP3 CODECOPY RETURN JUMPDEST PUSH1 0x0 DUP1 REVERT INVALID PUSH1 0x80 PUSH1 0x40 MSTORE PUSH1 0x4 CALLDATASIZE LT ISZERO PUSH2 0x12 JUMPI PUSH1 0x0 DUP1 REVERT JUMPDEST PUSH1 0x0 CALLDATALOAD PUSH1 0xE0 SHR DUP1 PUSH3 0x1CDB23 EQ PUSH2 0x1440 JUMPI DUP1 PUSH4 0x1C2353E1 EQ PUSH2 0x1401 JUMPI DUP1 PUSH4 0x291D8DCA EQ PUSH2 0x12A1 JUMPI DUP1 PUSH4 0x3951E09B EQ PUSH2 0x11E5 JUMPI DUP1 PUSH4 0x3F5C5E79 EQ PUSH2 0xD0F JUMPI DUP1 PUSH4 0x5DA09B88 EQ PUSH2 0xCD0 JUMPI DUP1 PUSH4 0x648FD7C0 EQ PUSH2 0xC91 JUMPI DUP1 PUSH4 0x701B70AC EQ PUSH2 0xC52 JUMPI DUP1 PUSH4 0xA5610379 EQ PUSH2 0x5B5 JUMPI DUP1 PUSH4 0xC0F33418 EQ PUSH2 0x392 JUMPI DUP1 PUSH4 0xC19AE2ED EQ PUSH2 0xCD JUMPI PUSH4 0xCE606EE0 EQ PUSH2 0x9F JUMPI PUSH1 0x0 DUP1 REVERT JUMPDEST CALLVALUE PUSH2 0xC8 JUMPI PUSH1 0x0 CALLDATASIZE PUSH1 0x3 NOT ADD SLT PUSH2 0xC8 JUMPI PUSH1 0x6 SLOAD PUSH1 0x40 MLOAD PUSH1 0x1 PUSH1 0x1 PUSH1 0xA0 SHL SUB SWAP1 SWAP2 AND DUP2 MSTORE PUSH1 0x20 SWAP1 RETURN JUMPDEST PUSH1 0x0 DUP1 REVERT JUMPDEST CALLVALUE PUSH2 0xC8 JUMPI PUSH1 0x40 CALLDATASIZE PUSH1 0x3 NOT ADD SLT PUSH2 0xC8 JUMPI PUSH1 0x4 CALLDATALOAD PUSH1 0x1 PUSH1 0x1 PUSH1 0x40 SHL SUB DUP2 GT PUSH2 0xC8 JUMPI PUSH2 0xFD SWAP1 CALLDATASIZE SWAP1 PUSH1 0x4 ADD PUSH2 0x1819 JUMP JUMPDEST PUSH2 0x105 PUSH2 0x1876 JUMP JUMPDEST PUSH1 0x6 SLOAD SWAP1 SWAP2 SWAP1 PUSH1 0x1 PUSH1 0x1 PUSH1 0xA0 SHL SUB AND CALLER SUB PUSH2 0x335 JUMPI PUSH1 0x40 MLOAD SWAP1 PUSH1 0x20 DUP3 ADD DUP2 MLOAD SWAP3 PUSH2 0x14B PUSH1 0x20 DUP3 DUP2 DUP7 ADD SWAP7 PUSH2 0x13A DUP2 DUP8 DUP11 PUSH2 0x19A9 JUMP JUMPDEST DUP2 ADD SUB ADD PUSH1 0x1F NOT DUP2 ADD DUP4 MSTORE DUP3 PUSH2 0x17DD JUMP JUMPDEST MLOAD SWAP1 KECCAK256 PUSH1 0x40 MLOAD PUSH1 0x20 DUP2 ADD SWAP1 PUSH5 0x26A4A722A9 PUSH1 0xD9 SHL DUP3 MSTORE PUSH1 0x5 DUP2 MSTORE PUSH2 0x170 PUSH1 0x25 DUP3 PUSH2 0x17DD JUMP JUMPDEST MLOAD SWAP1 KECCAK256 SUB PUSH2 0x19F JUMPI POP POP PUSH1 0x1 PUSH1 0x1 PUSH1 0xA0 SHL SUB AND PUSH1 0x0 SWAP1 DUP2 MSTORE PUSH1 0x2 PUSH1 0x20 MSTORE PUSH1 0x40 SWAP1 KECCAK256 DUP1 SLOAD PUSH1 0xFF NOT AND PUSH1 0x1 OR SWAP1 SSTORE JUMPDEST STOP JUMPDEST PUSH1 0x40 MLOAD PUSH1 0x20 DUP2 ADD SWAP1 PUSH2 0x1BA PUSH1 0x20 DUP3 DUP6 MLOAD PUSH2 0x13A DUP2 DUP8 DUP11 PUSH2 0x19A9 JUMP JUMPDEST MLOAD SWAP1 KECCAK256 PUSH1 0x40 MLOAD PUSH1 0x20 DUP2 ADD SWAP1 PUSH6 0x21AAAA2A22A9 PUSH1 0xD1 SHL DUP3 MSTORE PUSH1 0x6 DUP2 MSTORE PUSH2 0x1E0 PUSH1 0x26 DUP3 PUSH2 0x17DD JUMP JUMPDEST MLOAD SWAP1 KECCAK256 SUB PUSH2 0x20E JUMPI POP POP PUSH1 0x1 PUSH1 0x1 PUSH1 0xA0 SHL SUB AND PUSH1 0x0 SWAP1 DUP2 MSTORE PUSH1 0x3 PUSH1 0x20 MSTORE PUSH1 0x40 SWAP1 KECCAK256 DUP1 SLOAD PUSH1 0xFF NOT AND PUSH1 0x1 OR SWAP1 SSTORE STOP JUMPDEST PUSH1 0x40 MLOAD PUSH1 0x20 DUP2 ADD SWAP1 PUSH2 0x229 PUSH1 0x20 DUP3 DUP6 MLOAD PUSH2 0x13A DUP2 DUP8 DUP11 PUSH2 0x19A9 JUMP JUMPDEST MLOAD SWAP1 KECCAK256 PUSH1 0x40 MLOAD PUSH1 0x20 DUP2 ADD SWAP1 PUSH9 0x21A2A92A24A324A2A9 PUSH1 0xB9 SHL DUP3 MSTORE PUSH1 0x9 DUP2 MSTORE PUSH2 0x252 PUSH1 0x29 DUP3 PUSH2 0x17DD JUMP JUMPDEST MLOAD SWAP1 KECCAK256 SUB PUSH2 0x280 JUMPI POP POP PUSH1 0x1 PUSH1 0x1 PUSH1 0xA0 SHL SUB AND PUSH1 0x0 SWAP1 DUP2 MSTORE PUSH1 0x4 PUSH1 0x20 MSTORE PUSH1 0x40 SWAP1 KECCAK256 DUP1 SLOAD PUSH1 0xFF NOT AND PUSH1 0x1 OR SWAP1 SSTORE STOP JUMPDEST PUSH2 0x29C PUSH1 0x20 PUSH1 0x40 MLOAD DUP1 SWAP4 PUSH2 0x13A DUP4 DUP4 ADD SWAP7 DUP8 SWAP3 MLOAD SWAP3 DUP4 SWAP2 PUSH2 0x19A9 JUMP JUMPDEST MLOAD SWAP1 KECCAK256 PUSH1 0x40 MLOAD PUSH1 0x20 DUP2 ADD SWAP1 PUSH8 0x2922AA20A4A622A9 PUSH1 0xC1 SHL DUP3 MSTORE PUSH1 0x8 DUP2 MSTORE PUSH2 0x2C4 PUSH1 0x28 DUP3 PUSH2 0x17DD JUMP JUMPDEST MLOAD SWAP1 KECCAK256 SUB PUSH2 0x2F0 JUMPI PUSH1 0x1 PUSH1 0x1 PUSH1 0xA0 SHL SUB AND PUSH1 0x0 SWAP1 DUP2 MSTORE PUSH1 0x5 PUSH1 0x20 MSTORE PUSH1 0x40 SWAP1 KECCAK256 DUP1 SLOAD PUSH1 0xFF NOT AND PUSH1 0x1 OR SWAP1 SSTORE STOP JUMPDEST PUSH1 0x40 MLOAD PUSH3 0x461BCD PUSH1 0xE5 SHL DUP2 MSTORE PUSH1 0x20 PUSH1 0x4 DUP3 ADD MSTORE PUSH1 0x17 PUSH1 0x24 DUP3 ADD MSTORE PUSH32 0x496E76616C696420726F6C65207370656369666965642E000000000000000000 PUSH1 0x44 DUP3 ADD MSTORE PUSH1 0x64 SWAP1 REVERT JUMPDEST PUSH1 0x40 MLOAD PUSH3 0x461BCD PUSH1 0xE5 SHL DUP2 MSTORE PUSH1 0x20 PUSH1 0x4 DUP3 ADD MSTORE PUSH1 0x2F PUSH1 0x24 DUP3 ADD MSTORE PUSH32 0x4F6E6C792074686520636F6E7472616374206F776E65722063616E2063616C6C PUSH1 0x44 DUP3 ADD MSTORE PUSH15 0x103A3434B990333AB731BA34B7B717 PUSH1 0x89 SHL PUSH1 0x64 DUP3 ADD MSTORE PUSH1 0x84 SWAP1 REVERT JUMPDEST CALLVALUE PUSH2 0xC8 JUMPI PUSH1 0x60 CALLDATASIZE PUSH1 0x3 NOT ADD SLT PUSH2 0xC8 JUMPI PUSH1 0x4 CALLDATALOAD PUSH2 0x3AE PUSH2 0x1876 JUMP JUMPDEST SWAP1 PUSH1 0x44 CALLDATALOAD SWAP1 CALLER PUSH1 0x0 MSTORE PUSH1 0x5 PUSH1 0x20 MSTORE PUSH2 0x3CD PUSH1 0xFF PUSH1 0x40 PUSH1 0x0 KECCAK256 SLOAD AND PUSH2 0x1CA7 JUMP JUMPDEST DUP1 PUSH1 0x0 MSTORE PUSH1 0x0 PUSH1 0x20 MSTORE PUSH1 0x40 PUSH1 0x0 KECCAK256 SWAP2 PUSH1 0x1 DUP4 ADD SWAP1 PUSH1 0xFF DUP3 SLOAD PUSH1 0xA0 SHR AND SWAP2 PUSH1 0x5 DUP4 LT ISZERO PUSH2 0x59F JUMPI PUSH1 0x3 DUP4 SUB PUSH2 0x545 JUMPI PUSH2 0x19D SWAP6 PUSH1 0x6 SWAP5 PUSH2 0x48D SWAP5 PUSH2 0x413 PUSH1 0x40 MLOAD DUP1 SWAP3 PUSH2 0x199C JUMP JUMPDEST PUSH1 0x4 PUSH1 0x20 DUP3 ADD MSTORE DUP2 PUSH1 0x0 DUP1 MLOAD PUSH1 0x20 PUSH2 0x1E3E DUP4 CODECOPY DUP2 MLOAD SWAP2 MSTORE PUSH1 0x40 CALLER SWAP4 LOG3 PUSH1 0x40 MLOAD DUP5 DUP2 MSTORE PUSH1 0x1 PUSH1 0x1 PUSH1 0xA0 SHL SUB DUP4 AND SWAP2 SWAP1 PUSH32 0x6747C1EC2BD86DFA60A8C4DE1DC040482D5F8618BE034D32C3312515CE165A1F SWAP1 PUSH1 0x20 SWAP1 LOG3 DUP2 SLOAD PUSH1 0x1 PUSH1 0x1 PUSH1 0xA8 SHL SUB NOT AND PUSH1 0x1 PUSH1 0x1 PUSH1 0xA0 SHL SUB SWAP2 SWAP1 SWAP2 AND OR PUSH1 0x1 PUSH1 0xA2 SHL OR SWAP1 SSTORE PUSH2 0x1D75 JUMP JUMPDEST SWAP2 PUSH2 0x4F4 PUSH1 0x7 PUSH1 0x3B PUSH1 0x40 MLOAD DUP1 SWAP7 PUSH32 0x536F6C6420746F20636F6E73756D65722061742070726963653A200000000000 PUSH1 0x20 DUP4 ADD MSTORE PUSH2 0x4D3 DUP2 MLOAD DUP1 SWAP3 PUSH1 0x20 DUP7 DUP7 ADD SWAP2 ADD PUSH2 0x19A9 JUMP JUMPDEST DUP2 ADD PUSH7 0x103AB734BA3997 PUSH1 0xC9 SHL DUP4 DUP3 ADD MSTORE SUB ADD PUSH1 0x18 NOT DUP2 ADD DUP7 MSTORE ADD DUP5 PUSH2 0x17DD JUMP JUMPDEST PUSH1 0x40 MLOAD SWAP3 PUSH2 0x501 DUP5 PUSH2 0x17C2 JUMP JUMPDEST PUSH1 0x4 DUP5 MSTORE CALLER PUSH1 0x20 DUP6 ADD MSTORE PUSH1 0x40 DUP1 MLOAD SWAP1 PUSH2 0x51A DUP2 DUP4 PUSH2 0x17DD JUMP JUMPDEST PUSH1 0xA DUP3 MSTORE PUSH10 0x46696E616C2053616C65 PUSH1 0xB0 SHL PUSH1 0x20 DUP4 ADD MSTORE DUP6 ADD MSTORE TIMESTAMP PUSH1 0x60 DUP6 ADD MSTORE PUSH1 0x80 DUP5 ADD MSTORE ADD PUSH2 0x1C5E JUMP JUMPDEST PUSH1 0x40 MLOAD PUSH3 0x461BCD PUSH1 0xE5 SHL DUP2 MSTORE PUSH1 0x20 PUSH1 0x4 DUP3 ADD MSTORE PUSH1 0x2C PUSH1 0x24 DUP3 ADD MSTORE PUSH32 0x4469616D6F6E64206D75737420626520496E2052657461696C20737461747573 PUSH1 0x44 DUP3 ADD MSTORE PUSH12 0x103A379031329039B7B63217 PUSH1 0xA1 SHL PUSH1 0x64 DUP3 ADD MSTORE PUSH1 0x84 SWAP1 REVERT JUMPDEST PUSH4 0x4E487B71 PUSH1 0xE0 SHL PUSH1 0x0 MSTORE PUSH1 0x21 PUSH1 0x4 MSTORE PUSH1 0x24 PUSH1 0x0 REVERT JUMPDEST CALLVALUE PUSH2 0xC8 JUMPI PUSH2 0x5C3 CALLDATASIZE PUSH2 0x188C JUMP JUMPDEST CALLER PUSH1 0x0 MSTORE PUSH1 0x2 PUSH1 0x20 MSTORE PUSH1 0xFF PUSH1 0x40 PUSH1 0x0 KECCAK256 SLOAD AND ISZERO PUSH2 0xC02 JUMPI PUSH1 0x1 SLOAD SWAP1 PUSH1 0x40 MLOAD SWAP3 PUSH2 0x5EB DUP5 PUSH2 0x17C2 JUMP JUMPDEST PUSH1 0x0 DUP5 MSTORE CALLER PUSH1 0x20 DUP6 ADD MSTORE DUP2 PUSH1 0x40 DUP6 ADD MSTORE TIMESTAMP PUSH1 0x60 DUP6 ADD MSTORE PUSH1 0x40 SWAP2 DUP3 MLOAD PUSH2 0x610 DUP5 DUP3 PUSH2 0x17DD JUMP JUMPDEST PUSH1 0x1F DUP2 MSTORE PUSH32 0x5261772073746F6E65206D696E656420616E6420726567697374657265642E00 PUSH1 0x20 DUP3 ADD MSTORE PUSH1 0x80 DUP7 ADD MSTORE PUSH1 0x20 SWAP5 PUSH1 0x1 DUP5 MLOAD PUSH2 0x650 DUP9 DUP3 PUSH2 0x17DD JUMP JUMPDEST PUSH1 0x0 DUP2 MSTORE PUSH1 0x0 SWAP2 PUSH2 0xBFD JUMPI JUMPDEST DUP6 MLOAD PUSH2 0x100 DUP2 ADD DUP2 DUP2 LT PUSH1 0x1 PUSH1 0x1 PUSH1 0x40 SHL SUB DUP3 GT OR PUSH2 0x9B8 JUMPI DUP8 MSTORE DUP8 DUP2 MSTORE DUP8 DUP8 DUP11 DUP1 DUP5 ADD CALLER DUP2 MSTORE DUP3 DUP6 ADD SWAP1 DUP8 DUP3 MSTORE PUSH1 0x60 DUP7 ADD SWAP2 DUP12 DUP4 MSTORE DUP9 DUP6 MLOAD SWAP5 PUSH2 0x6A0 DUP2 DUP8 PUSH2 0x17DD JUMP JUMPDEST DUP2 DUP7 MSTORE PUSH1 0x80 DUP10 ADD SWAP6 DUP7 MSTORE DUP7 MLOAD SWAP7 PUSH2 0x6B7 DUP3 DUP10 PUSH2 0x17DD JUMP JUMPDEST DUP3 DUP9 MSTORE PUSH1 0xA0 DUP11 ADD SWAP8 DUP9 MSTORE MLOAD SWAP8 PUSH2 0x6CD DUP3 DUP11 PUSH2 0x17DD JUMP JUMPDEST DUP3 DUP10 MSTORE PUSH1 0xC0 DUP11 ADD SWAP9 DUP10 MSTORE PUSH1 0xE0 DUP11 ADD SWAP11 DUP12 MSTORE DUP3 MSTORE MSTORE DUP13 DUP10 KECCAK256 SWAP7 MLOAD DUP8 SSTORE SWAP1 MLOAD PUSH1 0x1 DUP8 ADD DUP1 SLOAD PUSH1 0x1 PUSH1 0x1 PUSH1 0xA0 SHL SUB NOT AND PUSH1 0x1 PUSH1 0x1 PUSH1 0xA0 SHL SUB SWAP3 SWAP1 SWAP3 AND SWAP2 SWAP1 SWAP2 OR DUP2 SSTORE SWAP1 MLOAD PUSH1 0x5 DUP2 LT ISZERO PUSH2 0xBE9 JUMPI DUP2 SLOAD PUSH1 0xFF PUSH1 0xA0 SHL NOT AND PUSH1 0xA0 SWAP2 SWAP1 SWAP2 SHL PUSH1 0xFF PUSH1 0xA0 SHL AND OR SWAP1 SSTORE MLOAD PUSH1 0x2 DUP6 ADD SSTORE MLOAD DUP1 MLOAD PUSH1 0x3 DUP6 ADD SWAP2 SWAP1 PUSH1 0x1 PUSH1 0x1 PUSH1 0x40 SHL SUB DUP2 GT PUSH2 0xBD5 JUMPI DUP14 PUSH2 0x757 DUP5 SLOAD PUSH2 0x18BE JUMP JUMPDEST SWAP1 PUSH1 0x1F DUP3 GT PUSH2 0xBA7 JUMPI JUMPDEST POP POP DUP14 DUP1 PUSH1 0x1F DUP4 GT PUSH1 0x1 EQ PUSH2 0xB41 JUMPI POP DUP2 SWAP1 PUSH2 0x793 SWAP4 DUP11 SWAP3 PUSH2 0xB36 JUMPI JUMPDEST POP POP DUP2 PUSH1 0x1 SHL SWAP2 PUSH1 0x0 NOT SWAP1 PUSH1 0x3 SHL SHR NOT AND OR SWAP1 JUMP JUMPDEST SWAP1 SSTORE JUMPDEST PUSH1 0x4 DUP4 ADD SWAP1 MLOAD DUP1 MLOAD PUSH1 0x1 PUSH1 0x1 PUSH1 0x40 SHL SUB DUP2 GT PUSH2 0xB22 JUMPI PUSH2 0x7B6 DUP4 SLOAD PUSH2 0x18BE JUMP JUMPDEST DUP14 PUSH1 0x1F DUP3 GT PUSH2 0xAF4 JUMPI JUMPDEST POP POP DUP13 DUP14 PUSH1 0x1F DUP4 GT PUSH1 0x1 EQ PUSH2 0xA8E JUMPI POP DUP2 SWAP1 PUSH2 0x7F1 SWAP4 DUP10 SWAP3 PUSH2 0x9CC JUMPI POP POP DUP2 PUSH1 0x1 SHL SWAP2 PUSH1 0x0 NOT SWAP1 PUSH1 0x3 SHL SHR NOT AND OR SWAP1 JUMP JUMPDEST SWAP1 SSTORE JUMPDEST MLOAD DUP1 MLOAD PUSH1 0x5 DUP4 ADD SWAP2 PUSH1 0x1 PUSH1 0x1 PUSH1 0x40 SHL SUB DUP3 GT PUSH2 0xA7A JUMPI PUSH2 0x814 DUP4 SLOAD PUSH2 0x18BE JUMP JUMPDEST DUP13 PUSH1 0x1F DUP3 GT PUSH2 0xA41 JUMPI JUMPDEST POP POP DUP12 SWAP1 DUP13 PUSH1 0x1F DUP5 GT PUSH1 0x1 EQ PUSH2 0x9D7 JUMPI POP SWAP2 DUP1 PUSH2 0x855 SWAP3 PUSH1 0x6 SWAP7 SWAP6 SWAP5 DUP10 SWAP3 PUSH2 0x9CC JUMPI POP POP DUP2 PUSH1 0x1 SHL SWAP2 PUSH1 0x0 NOT SWAP1 PUSH1 0x3 SHL SHR NOT AND OR SWAP1 JUMP JUMPDEST SWAP1 SSTORE JUMPDEST ADD SWAP1 MLOAD SWAP1 DUP2 MLOAD SWAP2 PUSH1 0x1 PUSH1 0x40 SHL DUP4 GT PUSH2 0x9B8 JUMPI DUP10 SWAP1 DUP3 SLOAD DUP5 DUP5 SSTORE DUP1 DUP6 LT PUSH2 0x92D JUMPI JUMPDEST POP SWAP2 DUP9 SWAP4 SWAP2 DUP11 SWAP8 SWAP7 SWAP6 SWAP4 ADD SWAP1 DUP4 MSTORE DUP11 DUP4 KECCAK256 DUP12 DUP5 SWAP3 JUMPDEST DUP5 DUP5 LT PUSH2 0x901 JUMPI POP POP POP DUP7 DUP4 MSTORE POP POP DUP1 DUP10 MSTORE KECCAK256 PUSH32 0x9640A4144CDEC75F5C3C8FD02F2B362A765AC90B1473298BC30916F8CD24A850 SWAP3 SWAP2 PUSH2 0x8D0 SWAP2 PUSH1 0x6 ADD PUSH2 0x1C5E JUMP JUMPDEST PUSH2 0x8E2 DUP6 MLOAD SWAP2 DUP7 DUP4 MSTORE DUP7 DUP4 ADD SWAP1 PUSH2 0x19CC JUMP JUMPDEST SWAP4 DUP8 DUP3 ADD MSTORE DUP1 CALLER SWAP5 SUB SWAP1 LOG3 PUSH2 0x8F8 PUSH1 0x1 SLOAD PUSH2 0x1D50 JUMP JUMPDEST PUSH1 0x1 SSTORE MLOAD SWAP1 DUP2 MSTORE RETURN JUMPDEST PUSH1 0x1 SWAP4 SWAP6 SWAP8 SWAP9 SWAP10 POP PUSH1 0x4 SWAP3 SWAP5 SWAP7 POP PUSH2 0x91A DUP2 MLOAD DUP7 PUSH2 0x1A08 JUMP JUMPDEST ADD SWAP3 ADD SWAP3 ADD DUP10 SWAP7 SWAP6 SWAP5 SWAP3 DUP12 DUP11 SWAP6 SWAP4 PUSH2 0x88E JUMP JUMPDEST SWAP1 SWAP2 POP PUSH1 0x1 PUSH1 0x1 PUSH1 0xFE SHL SUB DUP2 AND DUP2 SUB PUSH2 0x9A4 JUMPI PUSH1 0x1 PUSH1 0x1 PUSH1 0xFE SHL SUB DUP5 AND DUP5 SUB PUSH2 0x9A4 JUMPI SWAP1 DUP11 SWAP2 DUP4 DUP7 MSTORE DUP3 DUP7 KECCAK256 SWAP1 PUSH1 0x2 SHL DUP2 ADD SWAP1 DUP6 PUSH1 0x2 SHL ADD JUMPDEST DUP2 DUP2 LT PUSH2 0x973 JUMPI POP PUSH2 0x879 JUMP JUMPDEST PUSH1 0x4 SWAP2 SWAP3 SWAP4 POP DUP7 DUP2 SSTORE PUSH2 0x988 PUSH1 0x1 DUP3 ADD PUSH2 0x1D01 JUMP JUMPDEST DUP7 PUSH1 0x2 DUP3 ADD SSTORE PUSH2 0x99A PUSH1 0x3 DUP3 ADD PUSH2 0x1D01 JUMP JUMPDEST ADD SWAP1 DUP12 SWAP3 SWAP2 PUSH2 0x966 JUMP JUMPDEST PUSH4 0x4E487B71 PUSH1 0xE0 SHL DUP6 MSTORE PUSH1 0x11 PUSH1 0x4 MSTORE PUSH1 0x24 DUP6 REVERT JUMPDEST PUSH4 0x4E487B71 PUSH1 0xE0 SHL DUP5 MSTORE PUSH1 0x41 PUSH1 0x4 MSTORE PUSH1 0x24 DUP5 REVERT JUMPDEST ADD MLOAD SWAP1 POP DUP15 DUP1 PUSH2 0x77E JUMP JUMPDEST SWAP2 SWAP1 PUSH1 0x1F NOT DUP5 AND DUP6 DUP10 MSTORE DUP4 DUP10 KECCAK256 SWAP4 DUP10 SWAP1 JUMPDEST DUP3 DUP3 LT PUSH2 0xA29 JUMPI POP POP SWAP2 PUSH1 0x1 SWAP4 SWAP2 DUP6 PUSH1 0x6 SWAP9 SWAP8 SWAP7 SWAP5 LT PUSH2 0xA10 JUMPI JUMPDEST POP POP POP DUP2 SHL ADD SWAP1 SSTORE PUSH2 0x858 JUMP JUMPDEST ADD MLOAD PUSH1 0x0 NOT PUSH1 0xF8 DUP5 PUSH1 0x3 SHL AND SHR NOT AND SWAP1 SSTORE DUP14 DUP1 DUP1 PUSH2 0xA03 JUMP JUMPDEST DUP1 PUSH1 0x1 DUP7 SWAP8 DUP3 SWAP5 SWAP8 DUP8 ADD MLOAD DUP2 SSTORE ADD SWAP7 ADD SWAP5 ADD SWAP1 PUSH2 0x9E8 JUMP JUMPDEST DUP5 DUP9 MSTORE DUP1 DUP9 KECCAK256 PUSH2 0xA69 SWAP3 PUSH1 0x1F DUP7 ADD PUSH1 0x5 SHR DUP3 ADD SWAP3 DUP7 LT PUSH2 0xA70 JUMPI JUMPDEST PUSH1 0x1F ADD PUSH1 0x5 SHR ADD SWAP1 PUSH2 0x19F1 JUMP JUMPDEST DUP13 DUP13 PUSH2 0x81E JUMP JUMPDEST SWAP1 SWAP2 POP DUP2 SWAP1 PUSH2 0xA5C JUMP JUMPDEST PUSH4 0x4E487B71 PUSH1 0xE0 SHL DUP7 MSTORE PUSH1 0x41 PUSH1 0x4 MSTORE PUSH1 0x24 DUP7 REVERT JUMPDEST SWAP2 SWAP3 PUSH1 0x1F NOT DUP5 AND DUP6 DUP11 MSTORE DUP4 DUP11 KECCAK256 SWAP4 DUP11 SWAP1 JUMPDEST DUP3 DUP3 LT PUSH2 0xADC JUMPI POP POP SWAP1 DUP5 PUSH1 0x1 SWAP6 SWAP5 SWAP4 SWAP3 LT PUSH2 0xAC3 JUMPI JUMPDEST POP POP POP DUP2 SHL ADD SWAP1 SSTORE PUSH2 0x7F4 JUMP JUMPDEST ADD MLOAD PUSH1 0x0 NOT PUSH1 0xF8 DUP5 PUSH1 0x3 SHL AND SHR NOT AND SWAP1 SSTORE DUP14 DUP1 DUP1 PUSH2 0xAB6 JUMP JUMPDEST DUP1 PUSH1 0x1 DUP7 SWAP8 DUP3 SWAP5 SWAP8 DUP8 ADD MLOAD DUP2 SSTORE ADD SWAP7 ADD SWAP5 ADD SWAP1 PUSH2 0xA9F JUMP JUMPDEST DUP5 DUP10 MSTORE DUP1 DUP10 KECCAK256 PUSH2 0xB1B SWAP3 PUSH1 0x1F DUP6 ADD PUSH1 0x5 SHR DUP3 ADD SWAP3 DUP6 LT PUSH2 0xA70 JUMPI PUSH1 0x1F ADD PUSH1 0x5 SHR ADD SWAP1 PUSH2 0x19F1 JUMP JUMPDEST DUP14 DUP14 PUSH2 0x7C0 JUMP JUMPDEST PUSH4 0x4E487B71 PUSH1 0xE0 SHL DUP8 MSTORE PUSH1 0x41 PUSH1 0x4 MSTORE PUSH1 0x24 DUP8 REVERT JUMPDEST ADD MLOAD SWAP1 POP DUP16 DUP1 PUSH2 0x77E JUMP JUMPDEST SWAP2 SWAP3 PUSH1 0x1F NOT DUP5 AND DUP6 DUP12 MSTORE DUP4 DUP12 KECCAK256 SWAP4 DUP12 SWAP1 JUMPDEST DUP3 DUP3 LT PUSH2 0xB8F JUMPI POP POP SWAP1 DUP5 PUSH1 0x1 SWAP6 SWAP5 SWAP4 SWAP3 LT PUSH2 0xB76 JUMPI JUMPDEST POP POP POP DUP2 SHL ADD SWAP1 SSTORE PUSH2 0x796 JUMP JUMPDEST ADD MLOAD PUSH1 0x0 NOT PUSH1 0xF8 DUP5 PUSH1 0x3 SHL AND SHR NOT AND SWAP1 SSTORE DUP15 DUP1 DUP1 PUSH2 0xB69 JUMP JUMPDEST DUP1 PUSH1 0x1 DUP7 SWAP8 DUP3 SWAP5 SWAP8 DUP8 ADD MLOAD DUP2 SSTORE ADD SWAP7 ADD SWAP5 ADD SWAP1 PUSH2 0xB52 JUMP JUMPDEST DUP5 DUP11 MSTORE DUP1 DUP11 KECCAK256 PUSH2 0xBCE SWAP3 PUSH1 0x1F DUP6 ADD PUSH1 0x5 SHR DUP3 ADD SWAP3 DUP6 LT PUSH2 0xA70 JUMPI PUSH1 0x1F ADD PUSH1 0x5 SHR ADD SWAP1 PUSH2 0x19F1 JUMP JUMPDEST DUP15 DUP15 PUSH2 0x761 JUMP JUMPDEST PUSH4 0x4E487B71 PUSH1 0xE0 SHL DUP9 MSTORE PUSH1 0x41 PUSH1 0x4 MSTORE PUSH1 0x24 DUP9 REVERT JUMPDEST PUSH4 0x4E487B71 PUSH1 0xE0 SHL DUP10 MSTORE PUSH1 0x21 PUSH1 0x4 MSTORE PUSH1 0x24 DUP10 REVERT JUMPDEST PUSH2 0x65C JUMP JUMPDEST PUSH1 0x40 MLOAD PUSH3 0x461BCD PUSH1 0xE5 SHL DUP2 MSTORE PUSH1 0x20 PUSH1 0x4 DUP3 ADD MSTORE PUSH1 0x22 PUSH1 0x24 DUP3 ADD MSTORE PUSH32 0x43616C6C6572206973206E6F7420616E20617574686F72697A6564204D696E65 PUSH1 0x44 DUP3 ADD MSTORE PUSH2 0x3917 PUSH1 0xF1 SHL PUSH1 0x64 DUP3 ADD MSTORE PUSH1 0x84 SWAP1 REVERT JUMPDEST CALLVALUE PUSH2 0xC8 JUMPI PUSH1 0x20 CALLDATASIZE PUSH1 0x3 NOT ADD SLT PUSH2 0xC8 JUMPI PUSH1 0x1 PUSH1 0x1 PUSH1 0xA0 SHL SUB PUSH2 0xC73 PUSH2 0x1860 JUMP JUMPDEST AND PUSH1 0x0 MSTORE PUSH1 0x2 PUSH1 0x20 MSTORE PUSH1 0x20 PUSH1 0xFF PUSH1 0x40 PUSH1 0x0 KECCAK256 SLOAD AND PUSH1 0x40 MLOAD SWAP1 ISZERO ISZERO DUP2 MSTORE RETURN JUMPDEST CALLVALUE PUSH2 0xC8 JUMPI PUSH1 0x20 CALLDATASIZE PUSH1 0x3 NOT ADD SLT PUSH2 0xC8 JUMPI PUSH1 0x1 PUSH1 0x1 PUSH1 0xA0 SHL SUB PUSH2 0xCB2 PUSH2 0x1860 JUMP JUMPDEST AND PUSH1 0x0 MSTORE PUSH1 0x3 PUSH1 0x20 MSTORE PUSH1 0x20 PUSH1 0xFF PUSH1 0x40 PUSH1 0x0 KECCAK256 SLOAD AND PUSH1 0x40 MLOAD SWAP1 ISZERO ISZERO DUP2 MSTORE RETURN JUMPDEST CALLVALUE PUSH2 0xC8 JUMPI PUSH1 0x20 CALLDATASIZE PUSH1 0x3 NOT ADD SLT PUSH2 0xC8 JUMPI PUSH1 0x1 PUSH1 0x1 PUSH1 0xA0 SHL SUB PUSH2 0xCF1 PUSH2 0x1860 JUMP JUMPDEST AND PUSH1 0x0 MSTORE PUSH1 0x5 PUSH1 0x20 MSTORE PUSH1 0x20 PUSH1 0xFF PUSH1 0x40 PUSH1 0x0 KECCAK256 SLOAD AND PUSH1 0x40 MLOAD SWAP1 ISZERO ISZERO DUP2 MSTORE RETURN JUMPDEST CALLVALUE PUSH2 0xC8 JUMPI PUSH1 0x80 CALLDATASIZE PUSH1 0x3 NOT ADD SLT PUSH2 0xC8 JUMPI PUSH1 0x4 CALLDATALOAD PUSH1 0x24 CALLDATALOAD PUSH1 0x1 PUSH1 0x1 PUSH1 0x40 SHL SUB DUP2 GT PUSH2 0xC8 JUMPI PUSH2 0xD42 SWAP1 CALLDATASIZE SWAP1 PUSH1 0x4 ADD PUSH2 0x1819 JUMP JUMPDEST SWAP1 PUSH1 0x44 CALLDATALOAD PUSH1 0x1 PUSH1 0x1 PUSH1 0x40 SHL SUB DUP2 GT PUSH2 0xC8 JUMPI PUSH2 0xD62 SWAP1 CALLDATASIZE SWAP1 PUSH1 0x4 ADD PUSH2 0x1819 JUMP JUMPDEST SWAP2 PUSH1 0x64 CALLDATALOAD PUSH1 0x1 PUSH1 0x1 PUSH1 0x40 SHL SUB DUP2 GT PUSH2 0xC8 JUMPI PUSH2 0xD82 SWAP1 CALLDATASIZE SWAP1 PUSH1 0x4 ADD PUSH2 0x1819 JUMP JUMPDEST CALLER PUSH1 0x0 MSTORE PUSH1 0x4 PUSH1 0x20 MSTORE PUSH1 0xFF PUSH1 0x40 PUSH1 0x0 KECCAK256 SLOAD AND ISZERO PUSH2 0x1191 JUMPI DUP3 PUSH1 0x0 MSTORE PUSH1 0x0 PUSH1 0x20 MSTORE PUSH1 0x40 PUSH1 0x0 KECCAK256 SWAP3 PUSH1 0x1 DUP5 ADD SWAP1 PUSH1 0xFF DUP3 SLOAD PUSH1 0xA0 SHR AND SWAP1 PUSH1 0x5 DUP3 LT ISZERO PUSH2 0x59F JUMPI PUSH1 0x1 DUP3 SUB PUSH2 0x1132 JUMPI PUSH2 0xDD4 PUSH1 0x40 MLOAD DUP1 SWAP4 PUSH2 0x199C JUMP JUMPDEST PUSH1 0x2 PUSH1 0x20 DUP4 ADD MSTORE PUSH1 0x0 DUP1 MLOAD PUSH1 0x20 PUSH2 0x1E3E DUP4 CODECOPY DUP2 MLOAD SWAP2 MSTORE PUSH1 0x40 CALLER SWAP4 LOG3 PUSH1 0x3 DUP5 ADD DUP4 MLOAD PUSH1 0x1 PUSH1 0x1 PUSH1 0x40 SHL SUB DUP2 GT PUSH2 0x107B JUMPI PUSH2 0xE0D DUP3 SLOAD PUSH2 0x18BE JUMP JUMPDEST PUSH1 0x1F DUP2 GT PUSH2 0x1100 JUMPI JUMPDEST POP PUSH1 0x20 PUSH1 0x1F DUP3 GT PUSH1 0x1 EQ PUSH2 0x109C JUMPI SWAP1 DUP1 PUSH2 0xE46 SWAP3 PUSH1 0x0 SWAP2 PUSH2 0x1091 JUMPI JUMPDEST POP DUP2 PUSH1 0x1 SHL SWAP2 PUSH1 0x0 NOT SWAP1 PUSH1 0x3 SHL SHR NOT AND OR SWAP1 JUMP JUMPDEST SWAP1 SSTORE JUMPDEST PUSH1 0x4 DUP5 ADD DUP6 MLOAD PUSH1 0x1 PUSH1 0x1 PUSH1 0x40 SHL SUB DUP2 GT PUSH2 0x107B JUMPI PUSH2 0xE67 DUP3 SLOAD PUSH2 0x18BE JUMP JUMPDEST PUSH1 0x1F DUP2 GT PUSH2 0x1049 JUMPI JUMPDEST POP PUSH1 0x20 PUSH1 0x1F DUP3 GT PUSH1 0x1 EQ PUSH2 0xFD3 JUMPI PUSH2 0x19D SWAP8 SWAP7 SWAP5 PUSH2 0xF72 SWAP5 PUSH1 0x9 SWAP5 PUSH2 0xEB1 DUP6 PUSH1 0x6 SWAP11 SWAP7 PUSH1 0xA SWAP7 PUSH1 0x0 SWAP2 PUSH2 0xFC8 JUMPI POP DUP2 PUSH1 0x1 SHL SWAP2 PUSH1 0x0 NOT SWAP1 PUSH1 0x3 SHL SHR NOT AND OR SWAP1 JUMP JUMPDEST SWAP1 SSTORE JUMPDEST DUP1 SLOAD PUSH1 0x1 PUSH1 0x1 PUSH1 0xA8 SHL SUB NOT AND CALLER OR PUSH1 0x1 PUSH1 0xA1 SHL OR SWAP1 SSTORE PUSH1 0x40 MLOAD PUSH32 0x4365727469666965642077697468206772616465733A20436F6C6F7220000000 PUSH1 0x20 DUP1 DUP4 ADD SWAP2 SWAP1 SWAP2 MSTORE DUP5 MLOAD SWAP2 SWAP10 DUP11 SWAP6 PUSH1 0x3D SWAP4 SWAP2 SWAP3 PUSH2 0xF12 SWAP2 DUP4 SWAP2 DUP10 DUP8 ADD SWAP2 ADD PUSH2 0x19A9 JUMP JUMPDEST DUP6 ADD PUSH10 0x161021B630B934BA3C9 PUSH1 0xB5 SHL DUP4 DUP3 ADD MSTORE PUSH2 0xF3A DUP3 MLOAD DUP1 SWAP4 PUSH1 0x20 PUSH1 0x47 DUP6 ADD SWAP2 ADD PUSH2 0x19A9 JUMP JUMPDEST ADD ADD PUSH9 0x17102737BA32B99D1 PUSH1 0xBD SHL DUP4 DUP3 ADD MSTORE PUSH2 0xF61 DUP3 MLOAD DUP1 SWAP4 PUSH1 0x20 PUSH1 0x13 DUP6 ADD SWAP2 ADD PUSH2 0x19A9 JUMP JUMPDEST ADD ADD SUB ADD PUSH1 0x1F NOT DUP2 ADD DUP6 MSTORE DUP5 PUSH2 0x17DD JUMP JUMPDEST PUSH1 0x40 MLOAD SWAP3 PUSH2 0xF7F DUP5 PUSH2 0x17C2 JUMP JUMPDEST PUSH1 0x2 DUP5 MSTORE CALLER PUSH1 0x20 DUP6 ADD MSTORE PUSH1 0x40 DUP1 MLOAD SWAP1 PUSH2 0xF98 DUP2 DUP4 PUSH2 0x17DD JUMP JUMPDEST PUSH1 0xF DUP3 MSTORE PUSH15 0x23A4A097A4A3A497A0A3A9902630B1 PUSH1 0x89 SHL PUSH1 0x20 DUP4 ADD MSTORE DUP6 ADD MSTORE TIMESTAMP PUSH1 0x60 DUP6 ADD MSTORE PUSH1 0x80 DUP5 ADD MSTORE ADD PUSH2 0x1C5E JUMP JUMPDEST SWAP1 POP DUP13 ADD MLOAD DUP15 PUSH2 0xE32 JUMP JUMPDEST PUSH1 0x1F NOT DUP3 AND SWAP1 DUP4 PUSH1 0x0 MSTORE DUP1 PUSH1 0x0 KECCAK256 SWAP2 PUSH1 0x0 JUMPDEST DUP2 DUP2 LT PUSH2 0x1031 JUMPI POP SWAP5 PUSH1 0x9 SWAP5 PUSH1 0x1 DUP6 PUSH1 0xA SWAP6 PUSH2 0x19D SWAP14 SWAP13 SWAP11 SWAP6 PUSH1 0x6 SWAP13 SWAP9 PUSH2 0xF72 SWAP12 LT PUSH2 0x1018 JUMPI JUMPDEST POP POP DUP2 SHL ADD SWAP1 SSTORE PUSH2 0xEB4 JUMP JUMPDEST DUP14 ADD MLOAD PUSH1 0x0 NOT PUSH1 0xF8 DUP5 PUSH1 0x3 SHL AND SHR NOT AND SWAP1 SSTORE DUP14 DUP1 PUSH2 0x100C JUMP JUMPDEST SWAP2 SWAP3 PUSH1 0x20 PUSH1 0x1 DUP2 SWAP3 DUP7 DUP15 ADD MLOAD DUP2 SSTORE ADD SWAP5 ADD SWAP3 ADD PUSH2 0xFE5 JUMP JUMPDEST PUSH2 0x1075 SWAP1 DUP4 PUSH1 0x0 MSTORE PUSH1 0x20 PUSH1 0x0 KECCAK256 PUSH1 0x1F DUP5 ADD PUSH1 0x5 SHR DUP2 ADD SWAP2 PUSH1 0x20 DUP6 LT PUSH2 0xA70 JUMPI PUSH1 0x1F ADD PUSH1 0x5 SHR ADD SWAP1 PUSH2 0x19F1 JUMP JUMPDEST DUP8 PUSH2 0xE70 JUMP JUMPDEST PUSH4 0x4E487B71 PUSH1 0xE0 SHL PUSH1 0x0 MSTORE PUSH1 0x41 PUSH1 0x4 MSTORE PUSH1 0x24 PUSH1 0x0 REVERT JUMPDEST SWAP1 POP DUP7 ADD MLOAD DUP10 PUSH2 0xE32 JUMP JUMPDEST PUSH1 0x1F NOT DUP3 AND SWAP1 DUP4 PUSH1 0x0 MSTORE DUP1 PUSH1 0x0 KECCAK256 SWAP2 PUSH1 0x0 JUMPDEST DUP2 DUP2 LT PUSH2 0x10E8 JUMPI POP SWAP1 DUP4 PUSH1 0x1 SWAP5 SWAP4 SWAP3 LT PUSH2 0x10CF JUMPI JUMPDEST POP POP DUP2 SHL ADD SWAP1 SSTORE PUSH2 0xE49 JUMP JUMPDEST DUP8 ADD MLOAD PUSH1 0x0 NOT PUSH1 0xF8 DUP5 PUSH1 0x3 SHL AND SHR NOT AND SWAP1 SSTORE DUP9 DUP1 PUSH2 0x10C3 JUMP JUMPDEST SWAP2 SWAP3 PUSH1 0x20 PUSH1 0x1 DUP2 SWAP3 DUP7 DUP13 ADD MLOAD DUP2 SSTORE ADD SWAP5 ADD SWAP3 ADD PUSH2 0x10AE JUMP JUMPDEST PUSH2 0x112C SWAP1 DUP4 PUSH1 0x0 MSTORE PUSH1 0x20 PUSH1 0x0 KECCAK256 PUSH1 0x1F DUP5 ADD PUSH1 0x5 SHR DUP2 ADD SWAP2 PUSH1 0x20 DUP6 LT PUSH2 0xA70 JUMPI PUSH1 0x1F ADD PUSH1 0x5 SHR ADD SWAP1 PUSH2 0x19F1 JUMP JUMPDEST DUP8 PUSH2 0xE16 JUMP JUMPDEST PUSH1 0x40 MLOAD PUSH3 0x461BCD PUSH1 0xE5 SHL DUP2 MSTORE PUSH1 0x20 PUSH1 0x4 DUP3 ADD MSTORE PUSH1 0x31 PUSH1 0x24 DUP3 ADD MSTORE PUSH32 0x4469616D6F6E64206D7573742062652043757420616E6420506F6C6973686564 PUSH1 0x44 DUP3 ADD MSTORE PUSH17 0x103A379031329031B2B93A34B334B2B217 PUSH1 0x79 SHL PUSH1 0x64 DUP3 ADD MSTORE PUSH1 0x84 SWAP1 REVERT JUMPDEST PUSH1 0x40 MLOAD PUSH3 0x461BCD PUSH1 0xE5 SHL DUP2 MSTORE PUSH1 0x20 PUSH1 0x4 DUP3 ADD MSTORE PUSH1 0x26 PUSH1 0x24 DUP3 ADD MSTORE PUSH32 0x43616C6C6572206973206E6F7420616E20617574686F72697A65642043657274 PUSH1 0x44 DUP3 ADD MSTORE PUSH6 0x34B334B2B917 PUSH1 0xD1 SHL PUSH1 0x64 DUP3 ADD MSTORE PUSH1 0x84 SWAP1 REVERT JUMPDEST CALLVALUE PUSH2 0xC8 JUMPI PUSH1 0x20 CALLDATASIZE PUSH1 0x3 NOT ADD SLT PUSH2 0xC8 JUMPI PUSH1 0x4 CALLDATALOAD PUSH1 0x0 MSTORE PUSH1 0x0 PUSH1 0x20 MSTORE PUSH1 0x40 PUSH1 0x0 KECCAK256 DUP1 SLOAD PUSH2 0x129D PUSH1 0x1 DUP4 ADD SLOAD SWAP3 PUSH2 0x128F PUSH1 0x2 DUP3 ADD SLOAD SWAP2 PUSH2 0x1281 PUSH2 0x1229 PUSH1 0x3 DUP4 ADD PUSH2 0x18F8 JUMP JUMPDEST PUSH2 0x1241 PUSH1 0x5 PUSH2 0x123A PUSH1 0x4 DUP7 ADD PUSH2 0x18F8 JUMP JUMPDEST SWAP5 ADD PUSH2 0x18F8 JUMP JUMPDEST SWAP5 PUSH2 0x126B PUSH1 0x40 MLOAD SWAP10 DUP11 SWAP10 DUP11 MSTORE PUSH1 0x1 DUP1 PUSH1 0xA0 SHL SUB DUP2 AND PUSH1 0x20 DUP12 ADD MSTORE PUSH1 0xFF PUSH1 0x40 DUP12 ADD SWAP2 PUSH1 0xA0 SHR AND PUSH2 0x199C JUMP JUMPDEST PUSH1 0x60 DUP9 ADD MSTORE PUSH1 0xE0 PUSH1 0x80 DUP9 ADD MSTORE PUSH1 0xE0 DUP8 ADD SWAP1 PUSH2 0x19CC JUMP JUMPDEST SWAP1 DUP6 DUP3 SUB PUSH1 0xA0 DUP8 ADD MSTORE PUSH2 0x19CC JUMP JUMPDEST SWAP1 DUP4 DUP3 SUB PUSH1 0xC0 DUP6 ADD MSTORE PUSH2 0x19CC JUMP JUMPDEST SUB SWAP1 RETURN JUMPDEST CALLVALUE PUSH2 0xC8 JUMPI PUSH2 0x12AF CALLDATASIZE PUSH2 0x188C JUMP JUMPDEST CALLER PUSH1 0x0 MSTORE PUSH1 0x5 PUSH1 0x20 MSTORE PUSH2 0x12C9 PUSH1 0xFF PUSH1 0x40 PUSH1 0x0 KECCAK256 SLOAD AND PUSH2 0x1CA7 JUMP JUMPDEST DUP2 PUSH1 0x0 MSTORE PUSH1 0x0 PUSH1 0x20 MSTORE PUSH1 0x40 PUSH1 0x0 KECCAK256 SWAP2 PUSH1 0x1 DUP4 ADD SWAP3 PUSH1 0xFF DUP5 SLOAD PUSH1 0xA0 SHR AND SWAP4 PUSH1 0x5 DUP6 LT ISZERO PUSH2 0x59F JUMPI PUSH1 0x2 DUP6 SUB PUSH2 0x13A1 JUMPI PUSH2 0x19D SWAP5 PUSH1 0x6 SWAP4 PUSH2 0x130B PUSH1 0x40 MLOAD DUP1 SWAP4 PUSH2 0x199C JUMP JUMPDEST PUSH1 0x3 PUSH1 0x20 DUP4 ADD MSTORE PUSH1 0x0 DUP1 MLOAD PUSH1 0x20 PUSH2 0x1E3E DUP4 CODECOPY DUP2 MLOAD SWAP2 MSTORE PUSH1 0x40 CALLER SWAP4 LOG3 DUP1 SLOAD PUSH1 0x1 PUSH1 0x1 PUSH1 0xA8 SHL SUB NOT AND CALLER OR PUSH1 0x3 PUSH1 0xA0 SHL OR SWAP1 SSTORE PUSH1 0x40 MLOAD SWAP3 PUSH2 0x1349 DUP5 PUSH2 0x17C2 JUMP JUMPDEST PUSH1 0x3 DUP5 MSTORE CALLER PUSH1 0x20 DUP6 ADD MSTORE PUSH1 0x40 DUP5 ADD MSTORE TIMESTAMP PUSH1 0x60 DUP5 ADD MSTORE PUSH1 0x40 MLOAD PUSH2 0x136C PUSH1 0x40 DUP3 PUSH2 0x17DD JUMP JUMPDEST PUSH1 0x20 DUP2 MSTORE PUSH32 0x5472616E7366657272656420746F2072657461696C20696E76656E746F72792E PUSH1 0x20 DUP3 ADD MSTORE PUSH1 0x80 DUP5 ADD MSTORE ADD PUSH2 0x1C5E JUMP JUMPDEST PUSH1 0x40 MLOAD PUSH3 0x461BCD PUSH1 0xE5 SHL DUP2 MSTORE PUSH1 0x20 PUSH1 0x4 DUP3 ADD MSTORE PUSH1 0x32 PUSH1 0x24 DUP3 ADD MSTORE PUSH32 0x4469616D6F6E64206D75737420626520436572746966696564206265666F7265 PUSH1 0x44 DUP3 ADD MSTORE PUSH18 0x1036B7BB34B733903A37903932BA30B4B617 PUSH1 0x71 SHL PUSH1 0x64 DUP3 ADD MSTORE PUSH1 0x84 SWAP1 REVERT JUMPDEST CALLVALUE PUSH2 0xC8 JUMPI PUSH1 0x20 CALLDATASIZE PUSH1 0x3 NOT ADD SLT PUSH2 0xC8 JUMPI PUSH1 0x1 PUSH1 0x1 PUSH1 0xA0 SHL SUB PUSH2 0x1422 PUSH2 0x1860 JUMP JUMPDEST AND PUSH1 0x0 MSTORE PUSH1 0x4 PUSH1 0x20 MSTORE PUSH1 0x20 PUSH1 0xFF PUSH1 0x40 PUSH1 0x0 KECCAK256 SLOAD AND PUSH1 0x40 MLOAD SWAP1 ISZERO ISZERO DUP2 MSTORE RETURN JUMPDEST CALLVALUE PUSH2 0xC8 JUMPI PUSH1 0x80 CALLDATASIZE PUSH1 0x3 NOT ADD SLT PUSH2 0xC8 JUMPI PUSH1 0x24 CALLDATALOAD PUSH1 0x4 CALLDATALOAD PUSH1 0x44 CALLDATALOAD PUSH1 0x1 PUSH1 0x1 PUSH1 0x40 SHL SUB DUP2 GT PUSH2 0xC8 JUMPI PUSH2 0x1476 SWAP1 CALLDATASIZE SWAP1 PUSH1 0x4 ADD PUSH2 0x1819 JUMP JUMPDEST SWAP1 PUSH1 0x64 CALLDATALOAD PUSH1 0x1 PUSH1 0x1 PUSH1 0x40 SHL SUB DUP2 GT PUSH2 0xC8 JUMPI PUSH2 0x1496 SWAP1 CALLDATASIZE SWAP1 PUSH1 0x4 ADD PUSH2 0x1819 JUMP JUMPDEST SWAP2 CALLER PUSH1 0x0 MSTORE PUSH1 0x3 PUSH1 0x20 MSTORE PUSH1 0xFF PUSH1 0x40 PUSH1 0x0 KECCAK256 SLOAD AND ISZERO PUSH2 0x1771 JUMPI DUP2 PUSH1 0x0 MSTORE PUSH1 0x0 PUSH1 0x20 MSTORE PUSH1 0x40 PUSH1 0x0 KECCAK256 SWAP4 PUSH1 0x1 DUP6 ADD SWAP3 PUSH1 0xFF DUP5 SLOAD PUSH1 0xA0 SHR AND SWAP1 PUSH1 0x5 DUP3 LT ISZERO PUSH2 0x59F JUMPI DUP2 PUSH2 0x1719 JUMPI DUP3 ISZERO ISZERO DUP1 PUSH2 0x170B JUMPI JUMPDEST ISZERO PUSH2 0x16C6 JUMPI PUSH2 0x14F4 PUSH1 0x40 MLOAD DUP1 SWAP4 PUSH2 0x199C JUMP JUMPDEST PUSH1 0x1 PUSH1 0x20 DUP4 ADD MSTORE PUSH1 0x0 DUP1 MLOAD PUSH1 0x20 PUSH2 0x1E3E DUP4 CODECOPY DUP2 MLOAD SWAP2 MSTORE PUSH1 0x40 CALLER SWAP4 LOG3 PUSH1 0x2 DUP6 ADD SSTORE DUP1 MLOAD PUSH1 0x5 DUP6 ADD SWAP2 PUSH1 0x1 PUSH1 0x1 PUSH1 0x40 SHL SUB DUP3 GT PUSH2 0x107B JUMPI PUSH2 0x1533 DUP4 SLOAD PUSH2 0x18BE JUMP JUMPDEST PUSH1 0x1F DUP2 GT PUSH2 0x1694 JUMPI JUMPDEST POP PUSH1 0x20 SWAP1 PUSH1 0x1F DUP4 GT PUSH1 0x1 EQ PUSH2 0x1625 JUMPI DUP3 PUSH1 0x6 SWAP6 SWAP4 PUSH2 0x19D SWAP9 SWAP6 SWAP4 PUSH2 0x1576 SWAP4 PUSH1 0x0 SWAP3 PUSH2 0x161A JUMPI POP POP DUP2 PUSH1 0x1 SHL SWAP2 PUSH1 0x0 NOT SWAP1 PUSH1 0x3 SHL SHR NOT AND OR SWAP1 JUMP JUMPDEST SWAP1 SSTORE JUMPDEST DUP1 SLOAD PUSH1 0x1 PUSH1 0x1 PUSH1 0xA8 SHL SUB NOT AND CALLER OR PUSH1 0x1 PUSH1 0xA0 SHL OR SWAP1 SSTORE PUSH1 0x40 MLOAD SWAP3 PUSH2 0x159C DUP5 PUSH2 0x17C2 JUMP JUMPDEST PUSH1 0x1 DUP5 MSTORE CALLER PUSH1 0x20 DUP6 ADD MSTORE PUSH1 0x40 DUP5 ADD MSTORE TIMESTAMP PUSH1 0x60 DUP5 ADD MSTORE PUSH1 0x40 MLOAD PUSH2 0x15BF PUSH1 0x60 DUP3 PUSH2 0x17DD JUMP JUMPDEST PUSH1 0x39 DUP2 MSTORE PUSH32 0x53746F6E65206375742C20706F6C69736865642C20616E64206E657720776569 PUSH1 0x20 DUP3 ADD MSTORE PUSH32 0x6768742F637574207175616C697479207265636F726465642E00000000000000 PUSH1 0x40 DUP3 ADD MSTORE PUSH1 0x80 DUP5 ADD MSTORE ADD PUSH2 0x1C5E JUMP JUMPDEST ADD MLOAD SWAP1 POP DUP10 DUP1 PUSH2 0x77E JUMP JUMPDEST SWAP1 PUSH1 0x1F NOT DUP4 AND SWAP2 DUP5 PUSH1 0x0 MSTORE DUP2 PUSH1 0x0 KECCAK256 SWAP3 PUSH1 0x0 JUMPDEST DUP2 DUP2 LT PUSH2 0x167C JUMPI POP SWAP3 PUSH1 0x1 SWAP3 DUP6 SWAP3 PUSH1 0x6 SWAP9 SWAP7 PUSH2 0x19D SWAP12 SWAP9 SWAP7 LT PUSH2 0x1663 JUMPI JUMPDEST POP POP POP DUP2 SHL ADD SWAP1 SSTORE PUSH2 0x1579 JUMP JUMPDEST ADD MLOAD PUSH1 0x0 NOT PUSH1 0xF8 DUP5 PUSH1 0x3 SHL AND SHR NOT AND SWAP1 SSTORE DUP9 DUP1 DUP1 PUSH2 0x1656 JUMP JUMPDEST SWAP3 SWAP4 PUSH1 0x20 PUSH1 0x1 DUP2 SWAP3 DUP8 DUP7 ADD MLOAD DUP2 SSTORE ADD SWAP6 ADD SWAP4 ADD PUSH2 0x1638 JUMP JUMPDEST PUSH2 0x16C0 SWAP1 DUP5 PUSH1 0x0 MSTORE PUSH1 0x20 PUSH1 0x0 KECCAK256 PUSH1 0x1F DUP6 ADD PUSH1 0x5 SHR DUP2 ADD SWAP2 PUSH1 0x20 DUP7 LT PUSH2 0xA70 JUMPI PUSH1 0x1F ADD PUSH1 0x5 SHR ADD SWAP1 PUSH2 0x19F1 JUMP JUMPDEST DUP7 PUSH2 0x153C JUMP JUMPDEST PUSH1 0x40 MLOAD PUSH3 0x461BCD PUSH1 0xE5 SHL DUP2 MSTORE PUSH1 0x20 PUSH1 0x4 DUP3 ADD MSTORE PUSH1 0x1E PUSH1 0x24 DUP3 ADD MSTORE PUSH32 0x46696E697368656420776569676874206D7573742062652076616C69642E0000 PUSH1 0x44 DUP3 ADD MSTORE PUSH1 0x64 SWAP1 REVERT JUMPDEST POP PUSH1 0x2 DUP8 ADD SLOAD DUP4 GT ISZERO PUSH2 0x14E2 JUMP JUMPDEST PUSH1 0x40 MLOAD PUSH3 0x461BCD PUSH1 0xE5 SHL DUP2 MSTORE PUSH1 0x20 PUSH1 0x4 DUP3 ADD MSTORE PUSH1 0x2A PUSH1 0x24 DUP3 ADD MSTORE PUSH32 0x4469616D6F6E64206D75737420626520696E204D696E65642073746174757320 PUSH1 0x44 DUP3 ADD MSTORE PUSH10 0x3A379031329031BABA17 PUSH1 0xB1 SHL PUSH1 0x64 DUP3 ADD MSTORE PUSH1 0x84 SWAP1 REVERT JUMPDEST PUSH1 0x40 MLOAD PUSH3 0x461BCD PUSH1 0xE5 SHL DUP2 MSTORE PUSH1 0x20 PUSH1 0x4 DUP3 ADD MSTORE PUSH1 0x23 PUSH1 0x24 DUP3 ADD MSTORE PUSH32 0x43616C6C6572206973206E6F7420616E20617574686F72697A65642043757474 PUSH1 0x44 DUP3 ADD MSTORE PUSH3 0x32B917 PUSH1 0xE9 SHL PUSH1 0x64 DUP3 ADD MSTORE PUSH1 0x84 SWAP1 REVERT JUMPDEST PUSH1 0xA0 DUP2 ADD SWAP1 DUP2 LT PUSH1 0x1 PUSH1 0x1 PUSH1 0x40 SHL SUB DUP3 GT OR PUSH2 0x107B JUMPI PUSH1 0x40 MSTORE JUMP JUMPDEST SWAP1 PUSH1 0x1F DUP1 NOT SWAP2 ADD AND DUP2 ADD SWAP1 DUP2 LT PUSH1 0x1 PUSH1 0x1 PUSH1 0x40 SHL SUB DUP3 GT OR PUSH2 0x107B JUMPI PUSH1 0x40 MSTORE JUMP JUMPDEST PUSH1 0x1 PUSH1 0x1 PUSH1 0x40 SHL SUB DUP2 GT PUSH2 0x107B JUMPI PUSH1 0x1F ADD PUSH1 0x1F NOT AND PUSH1 0x20 ADD SWAP1 JUMP JUMPDEST DUP2 PUSH1 0x1F DUP3 ADD SLT ISZERO PUSH2 0xC8 JUMPI DUP1 CALLDATALOAD SWAP1 PUSH2 0x1830 DUP3 PUSH2 0x17FE JUMP JUMPDEST SWAP3 PUSH2 0x183E PUSH1 0x40 MLOAD SWAP5 DUP6 PUSH2 0x17DD JUMP JUMPDEST DUP3 DUP5 MSTORE PUSH1 0x20 DUP4 DUP4 ADD ADD GT PUSH2 0xC8 JUMPI DUP2 PUSH1 0x0 SWAP3 PUSH1 0x20 DUP1 SWAP4 ADD DUP4 DUP7 ADD CALLDATACOPY DUP4 ADD ADD MSTORE SWAP1 JUMP JUMPDEST PUSH1 0x4 CALLDATALOAD SWAP1 PUSH1 0x1 PUSH1 0x1 PUSH1 0xA0 SHL SUB DUP3 AND DUP3 SUB PUSH2 0xC8 JUMPI JUMP JUMPDEST PUSH1 0x24 CALLDATALOAD SWAP1 PUSH1 0x1 PUSH1 0x1 PUSH1 0xA0 SHL SUB DUP3 AND DUP3 SUB PUSH2 0xC8 JUMPI JUMP JUMPDEST SWAP1 PUSH1 0x40 PUSH1 0x3 NOT DUP4 ADD SLT PUSH2 0xC8 JUMPI PUSH1 0x4 CALLDATALOAD SWAP2 PUSH1 0x24 CALLDATALOAD SWAP1 PUSH1 0x1 PUSH1 0x1 PUSH1 0x40 SHL SUB DUP3 GT PUSH2 0xC8 JUMPI PUSH2 0x18BB SWAP2 PUSH1 0x4 ADD PUSH2 0x1819 JUMP JUMPDEST SWAP1 JUMP JUMPDEST SWAP1 PUSH1 0x1 DUP3 DUP2 SHR SWAP3 AND DUP1 ISZERO PUSH2 0x18EE JUMPI JUMPDEST PUSH1 0x20 DUP4 LT EQ PUSH2 0x18D8 JUMPI JUMP JUMPDEST PUSH4 0x4E487B71 PUSH1 0xE0 SHL PUSH1 0x0 MSTORE PUSH1 0x22 PUSH1 0x4 MSTORE PUSH1 0x24 PUSH1 0x0 REVERT JUMPDEST SWAP2 PUSH1 0x7F AND SWAP2 PUSH2 0x18CD JUMP JUMPDEST SWAP1 PUSH1 0x40 MLOAD SWAP2 DUP3 PUSH1 0x0 DUP3 SLOAD SWAP3 PUSH2 0x190C DUP5 PUSH2 0x18BE JUMP JUMPDEST DUP1 DUP5 MSTORE SWAP4 PUSH1 0x1 DUP2 AND SWAP1 DUP2 ISZERO PUSH2 0x197A JUMPI POP PUSH1 0x1 EQ PUSH2 0x1933 JUMPI JUMPDEST POP PUSH2 0x1931 SWAP3 POP SUB DUP4 PUSH2 0x17DD JUMP JUMPDEST JUMP JUMPDEST SWAP1 POP PUSH1 0x0 SWAP3 SWAP2 SWAP3 MSTORE PUSH1 0x20 PUSH1 0x0 KECCAK256 SWAP1 PUSH1 0x0 SWAP2 JUMPDEST DUP2 DUP4 LT PUSH2 0x195E JUMPI POP POP SWAP1 PUSH1 0x20 PUSH2 0x1931 SWAP3 DUP3 ADD ADD CODESIZE PUSH2 0x1924 JUMP JUMPDEST PUSH1 0x20 SWAP2 SWAP4 POP DUP1 PUSH1 0x1 SWAP2 SLOAD DUP4 DUP6 DUP10 ADD ADD MSTORE ADD SWAP2 ADD SWAP1 SWAP2 DUP5 SWAP3 PUSH2 0x1945 JUMP JUMPDEST SWAP1 POP PUSH1 0x20 SWAP3 POP PUSH2 0x1931 SWAP5 SWAP2 POP PUSH1 0xFF NOT AND DUP3 DUP5 ADD MSTORE ISZERO ISZERO PUSH1 0x5 SHL DUP3 ADD ADD CODESIZE PUSH2 0x1924 JUMP JUMPDEST SWAP1 PUSH1 0x5 DUP3 LT ISZERO PUSH2 0x59F JUMPI MSTORE JUMP JUMPDEST PUSH1 0x0 JUMPDEST DUP4 DUP2 LT PUSH2 0x19BC JUMPI POP POP PUSH1 0x0 SWAP2 ADD MSTORE JUMP JUMPDEST DUP2 DUP2 ADD MLOAD DUP4 DUP3 ADD MSTORE PUSH1 0x20 ADD PUSH2 0x19AC JUMP JUMPDEST SWAP1 PUSH1 0x20 SWAP2 PUSH2 0x19E5 DUP2 MLOAD DUP1 SWAP3 DUP2 DUP6 MSTORE DUP6 DUP1 DUP7 ADD SWAP2 ADD PUSH2 0x19A9 JUMP JUMPDEST PUSH1 0x1F ADD PUSH1 0x1F NOT AND ADD ADD SWAP1 JUMP JUMPDEST DUP2 DUP2 LT PUSH2 0x19FC JUMPI POP POP JUMP JUMPDEST PUSH1 0x0 DUP2 SSTORE PUSH1 0x1 ADD PUSH2 0x19F1 JUMP JUMPDEST SWAP2 SWAP1 DUP1 MLOAD SWAP3 PUSH1 0x5 DUP5 LT ISZERO PUSH2 0x59F JUMPI DUP1 SLOAD PUSH1 0x20 DUP4 ADD MLOAD PUSH2 0x100 PUSH1 0x1 PUSH1 0xA8 SHL SUB PUSH1 0x8 SWAP2 SWAP1 SWAP2 SHL AND PUSH1 0xFF SWAP6 SWAP1 SWAP6 AND PUSH1 0x1 PUSH1 0x1 PUSH1 0xA8 SHL SUB NOT SWAP1 SWAP2 AND OR SWAP4 SWAP1 SWAP4 OR DUP4 SSTORE PUSH1 0x40 DUP2 ADD MLOAD DUP1 MLOAD PUSH1 0x0 SWAP5 SWAP2 PUSH1 0x1 DUP4 ADD SWAP2 SWAP1 PUSH1 0x1 PUSH1 0x1 PUSH1 0x40 SHL SUB DUP3 GT PUSH2 0xB22 JUMPI PUSH2 0x1A6F DUP4 SLOAD PUSH2 0x18BE JUMP JUMPDEST PUSH1 0x1F DUP2 GT PUSH2 0x1C2E JUMPI JUMPDEST POP PUSH1 0x20 SWAP1 PUSH1 0x1F DUP4 GT PUSH1 0x1 EQ PUSH2 0x1BC6 JUMPI DUP3 PUSH1 0x80 SWAP6 SWAP4 PUSH1 0x3 SWAP6 SWAP4 PUSH2 0x1AAF SWAP4 DUP12 SWAP3 PUSH2 0x1B19 JUMPI POP POP DUP2 PUSH1 0x1 SHL SWAP2 PUSH1 0x0 NOT SWAP1 PUSH1 0x3 SHL SHR NOT AND OR SWAP1 JUMP JUMPDEST SWAP1 SSTORE JUMPDEST PUSH1 0x60 DUP5 ADD MLOAD PUSH1 0x2 DUP3 ADD SSTORE ADD SWAP2 ADD MLOAD SWAP3 DUP4 MLOAD SWAP1 PUSH1 0x1 PUSH1 0x1 PUSH1 0x40 SHL SUB DUP3 GT PUSH2 0x1BB2 JUMPI PUSH2 0x1ADC DUP4 SLOAD PUSH2 0x18BE JUMP JUMPDEST PUSH1 0x1F DUP2 GT PUSH2 0x1B82 JUMPI JUMPDEST POP PUSH1 0x20 SWAP1 PUSH1 0x1F DUP4 GT PUSH1 0x1 EQ PUSH2 0x1B24 JUMPI SWAP1 PUSH2 0x1B15 SWAP4 SWAP5 SWAP6 DUP4 PUSH2 0x1B19 JUMPI POP POP DUP2 PUSH1 0x1 SHL SWAP2 PUSH1 0x0 NOT SWAP1 PUSH1 0x3 SHL SHR NOT AND OR SWAP1 JUMP JUMPDEST SWAP1 SSTORE JUMP JUMPDEST ADD MLOAD SWAP1 POP CODESIZE DUP1 PUSH2 0x77E JUMP JUMPDEST SWAP1 PUSH1 0x1F NOT DUP4 AND DUP5 DUP4 MSTORE DUP2 DUP4 KECCAK256 SWAP3 JUMPDEST DUP2 DUP2 LT PUSH2 0x1B6A JUMPI POP SWAP6 DUP4 PUSH1 0x1 SWAP6 SWAP7 SWAP8 LT PUSH2 0x1B51 JUMPI JUMPDEST POP POP POP DUP2 SHL ADD SWAP1 SSTORE JUMP JUMPDEST ADD MLOAD PUSH1 0x0 NOT PUSH1 0xF8 DUP5 PUSH1 0x3 SHL AND SHR NOT AND SWAP1 SSTORE CODESIZE DUP1 DUP1 PUSH2 0x1B47 JUMP JUMPDEST SWAP2 SWAP3 PUSH1 0x20 PUSH1 0x1 DUP2 SWAP3 DUP7 DUP12 ADD MLOAD DUP2 SSTORE ADD SWAP5 ADD SWAP3 ADD PUSH2 0x1B32 JUMP JUMPDEST PUSH2 0x1BAC SWAP1 DUP5 DUP4 MSTORE PUSH1 0x20 DUP4 KECCAK256 PUSH1 0x1F DUP6 ADD PUSH1 0x5 SHR DUP2 ADD SWAP2 PUSH1 0x20 DUP7 LT PUSH2 0xA70 JUMPI PUSH1 0x1F ADD PUSH1 0x5 SHR ADD SWAP1 PUSH2 0x19F1 JUMP JUMPDEST CODESIZE PUSH2 0x1AE5 JUMP JUMPDEST PUSH4 0x4E487B71 PUSH1 0xE0 SHL DUP2 MSTORE PUSH1 0x41 PUSH1 0x4 MSTORE PUSH1 0x24 SWAP1 REVERT JUMPDEST DUP4 DUP9 MSTORE DUP2 DUP9 KECCAK256 SWAP2 SWAP1 PUSH1 0x1F NOT DUP5 AND DUP10 JUMPDEST DUP2 DUP2 LT PUSH2 0x1C16 JUMPI POP SWAP3 PUSH1 0x1 SWAP3 DUP6 SWAP3 PUSH1 0x80 SWAP9 SWAP7 PUSH1 0x3 SWAP9 SWAP7 LT PUSH2 0x1BFE JUMPI JUMPDEST POP POP POP DUP2 SHL ADD SWAP1 SSTORE PUSH2 0x1AB2 JUMP JUMPDEST ADD MLOAD PUSH1 0x0 NOT DUP4 DUP9 SHL PUSH1 0xF8 AND SHR NOT AND SWAP1 SSTORE CODESIZE DUP1 DUP1 PUSH2 0x1BF1 JUMP JUMPDEST SWAP3 SWAP4 PUSH1 0x20 PUSH1 0x1 DUP2 SWAP3 DUP8 DUP7 ADD MLOAD DUP2 SSTORE ADD SWAP6 ADD SWAP4 ADD PUSH2 0x1BD5 JUMP JUMPDEST PUSH2 0x1C58 SWAP1 DUP5 DUP10 MSTORE PUSH1 0x20 DUP10 KECCAK256 PUSH1 0x1F DUP6 ADD PUSH1 0x5 SHR DUP2 ADD SWAP2 PUSH1 0x20 DUP7 LT PUSH2 0xA70 JUMPI PUSH1 0x1F ADD PUSH1 0x5 SHR ADD SWAP1 PUSH2 0x19F1 JUMP JUMPDEST CODESIZE PUSH2 0x1A78 JUMP JUMPDEST SWAP1 DUP2 SLOAD PUSH1 0x1 PUSH1 0x40 SHL DUP2 LT ISZERO PUSH2 0x107B JUMPI PUSH1 0x1 DUP2 ADD DUP1 DUP5 SSTORE DUP2 LT ISZERO PUSH2 0x1C91 JUMPI PUSH2 0x1931 SWAP3 PUSH1 0x0 MSTORE PUSH1 0x20 PUSH1 0x0 KECCAK256 SWAP1 PUSH1 0x2 SHL ADD PUSH2 0x1A08 JUMP JUMPDEST PUSH4 0x4E487B71 PUSH1 0xE0 SHL PUSH1 0x0 MSTORE PUSH1 0x32 PUSH1 0x4 MSTORE PUSH1 0x24 PUSH1 0x0 REVERT JUMPDEST ISZERO PUSH2 0x1CAE JUMPI JUMP JUMPDEST PUSH1 0x40 MLOAD PUSH3 0x461BCD PUSH1 0xE5 SHL DUP2 MSTORE PUSH1 0x20 PUSH1 0x4 DUP3 ADD MSTORE PUSH1 0x25 PUSH1 0x24 DUP3 ADD MSTORE PUSH32 0x43616C6C6572206973206E6F7420616E20617574686F72697A65642052657461 PUSH1 0x44 DUP3 ADD MSTORE PUSH5 0x34B632B917 PUSH1 0xD9 SHL PUSH1 0x64 DUP3 ADD MSTORE PUSH1 0x84 SWAP1 REVERT JUMPDEST PUSH2 0x1D0B DUP2 SLOAD PUSH2 0x18BE JUMP JUMPDEST SWAP1 DUP2 PUSH2 0x1D15 JUMPI POP POP JUMP JUMPDEST DUP2 PUSH1 0x1F PUSH1 0x0 SWAP4 GT PUSH1 0x1 EQ PUSH2 0x1D27 JUMPI POP SSTORE JUMP JUMPDEST DUP2 DUP4 MSTORE PUSH1 0x20 DUP4 KECCAK256 PUSH2 0x1D43 SWAP2 PUSH1 0x1F ADD PUSH1 0x5 SHR DUP2 ADD SWAP1 PUSH1 0x1 ADD PUSH2 0x19F1 JUMP JUMPDEST DUP1 DUP3 MSTORE DUP2 PUSH1 0x20 DUP2 KECCAK256 SWAP2 SSTORE SSTORE JUMP JUMPDEST PUSH1 0x0 NOT DUP2 EQ PUSH2 0x1D5F JUMPI PUSH1 0x1 ADD SWAP1 JUMP JUMPDEST PUSH4 0x4E487B71 PUSH1 0xE0 SHL PUSH1 0x0 MSTORE PUSH1 0x11 PUSH1 0x4 MSTORE PUSH1 0x24 PUSH1 0x0 REVERT JUMPDEST DUP1 ISZERO PUSH2 0x1E1D JUMPI PUSH1 0x0 DUP2 DUP1 JUMPDEST PUSH2 0x1E09 JUMPI POP PUSH2 0x1D8E DUP2 PUSH2 0x17FE JUMP JUMPDEST SWAP1 PUSH2 0x1D9C PUSH1 0x40 MLOAD SWAP3 DUP4 PUSH2 0x17DD JUMP JUMPDEST DUP1 DUP3 MSTORE PUSH1 0x1F NOT PUSH2 0x1DAB DUP3 PUSH2 0x17FE JUMP JUMPDEST ADD CALLDATASIZE PUSH1 0x20 DUP5 ADD CALLDATACOPY JUMPDEST DUP1 SWAP3 DUP1 ISZERO PUSH2 0x1E02 JUMPI PUSH1 0x0 NOT DUP3 ADD SWAP2 DUP3 GT PUSH2 0x1D5F JUMPI DUP2 SWAP4 PUSH1 0xA DUP3 MOD PUSH1 0x30 ADD SWAP3 DUP4 PUSH1 0x30 GT PUSH2 0x1D5F JUMPI DUP5 MLOAD GT ISZERO PUSH2 0x1C91 JUMPI PUSH1 0xA SWAP3 PUSH1 0xF8 SHL PUSH1 0x1 PUSH1 0x1 PUSH1 0xF8 SHL SUB NOT AND PUSH1 0x0 BYTE SWAP1 DUP5 ADD PUSH1 0x1F ADD MSTORE8 DIV SWAP2 PUSH2 0x1DB3 JUMP JUMPDEST POP POP SWAP1 POP SWAP1 JUMP JUMPDEST SWAP1 PUSH2 0x1E15 PUSH1 0xA SWAP2 PUSH2 0x1D50 JUMP JUMPDEST SWAP2 DIV DUP1 PUSH2 0x1D80 JUMP JUMPDEST POP PUSH1 0x40 MLOAD PUSH2 0x1E2C PUSH1 0x40 DUP3 PUSH2 0x17DD JUMP JUMPDEST PUSH1 0x1 DUP2 MSTORE PUSH1 0x3 PUSH1 0xFC SHL PUSH1 0x20 DUP3 ADD MSTORE SWAP1 JUMP INVALID DUP8 PUSH12 0x27C390964649365F39E05B52 PUSH4 0x95171D9E CODECOPY 0xB5 0xC PUSH21 0x2A7AB350CD24437F05A2646970667358221220A88F GT SWAP2 DUP1 0xCC 0x4D DUP15 CALLVALUE 0xA6 0xD2 GASPRICE 0xC7 DUP8 PUSH1 0xC9 ADDMOD 0xBC EXTCODECOPY SIGNEXTEND SWAP3 0xAD PREVRANDAO 0xD8 LOG4 SHL PUSH2 0xC2D3 0xB0 DUP13 SIGNEXTEND PUSH5 0x736F6C6343 STOP ADDMOD SHR STOP CALLER "
        },
        "methodIdentifiers": {
          "certifyDiamond(uint256,string,string,string)": "3f5c5e79",
          "contractOwner()": "ce606ee0",
          "cutAndPolish(uint256,uint256,string,string)": "001cdb23",
          "diamonds(uint256)": "3951e09b",
          "grantRole(string,address)": "c19ae2ed",
          "isCertifier(address)": "1c2353e1",
          "isCutter(address)": "648fd7c0",
          "isMiner(address)": "701b70ac",
          "isRetailer(address)": "5da09b88",
          "mineDiamond(uint256,string)": "a5610379",
          "moveToRetail(uint256,string)": "291d8dca",
          "recordSale(uint256,address,uint256)": "c0f33418"
        }
      }
    }
  }
}